{"contracts/DealVault.sol":{"DealVault":{"abi":[{"inputs":[{"internalType":"address","name":"settlementToken_","type":"address"},{"internalType":"address","name":"payer_","type":"address"},{"internalType":"address","name":"arbiter_","type":"address"},{"internalType":"address[]","name":"payees_","type":"address[]"},{"internalType":"uint16[]","name":"payeeBps_","type":"uint16[]"},{"internalType":"string[]","name":"milestoneNames_","type":"string[]"},{"internalType":"uint256[]","name":"milestoneAmounts_","type":"uint256[]"},{"internalType":"uint64[]","name":"milestoneDueAts_","type":"uint64[]"},{"internalType":"uint256","name":"reserveAmount_","type":"uint256"},{"internalType":"uint16","name":"latePenaltyBps_","type":"uint16"}],"stateMutability":"nonpayable","type":"constructor"},{"anonymous":false,"inputs":[{"indexed":false,"internalType":"bool","name":"success","type":"bool"},{"indexed":false,"internalType":"uint256","name":"payerRefund","type":"uint256"},{"indexed":false,"internalType":"uint256","name":"payeeDistribution","type":"uint256"}],"name":"DealClosed","type":"event"},{"anonymous":false,"inputs":[{"indexed":true,"internalType":"address","name":"funder","type":"address"},{"indexed":false,"internalType":"uint256","name":"amount","type":"uint256"},{"indexed":false,"internalType":"uint256","name":"totalFunded","type":"uint256"}],"name":"DealFunded","type":"event"},{"anonymous":false,"inputs":[{"indexed":true,"internalType":"uint256","name":"milestoneId","type":"uint256"},{"indexed":false,"internalType":"uint256","name":"grossAmount","type":"uint256"},{"indexed":false,"internalType":"uint256","name":"penaltyAmount","type":"uint256"},{"indexed":false,"internalType":"uint256","name":"distributedAmount","type":"uint256"}],"name":"MilestoneReleased","type":"event"},{"anonymous":false,"inputs":[{"indexed":true,"internalType":"uint256","name":"milestoneId","type":"uint256"},{"indexed":false,"internalType":"uint256","name":"penaltyAmount","type":"uint256"},{"indexed":true,"internalType":"address","name":"refundedTo","type":"address"}],"name":"PenaltyApplied","type":"event"},{"inputs":[],"name":"allMilestonesReleased","outputs":[{"internalType":"bool","name":"","type":"bool"}],"stateMutability":"view","type":"function"},{"inputs":[],"name":"arbiter","outputs":[{"internalType":"address","name":"","type":"address"}],"stateMutability":"view","type":"function"},{"inputs":[{"internalType":"bool","name":"success","type":"bool"}],"name":"closeDeal","outputs":[],"stateMutability":"nonpayable","type":"function"},{"inputs":[],"name":"closed","outputs":[{"internalType":"bool","name":"","type":"bool"}],"stateMutability":"view","type":"function"},{"inputs":[],"name":"currentBalance","outputs":[{"internalType":"uint256","name":"","type":"uint256"}],"stateMutability":"view","type":"function"},{"inputs":[{"internalType":"uint256","name":"amount","type":"uint256"}],"name":"fund","outputs":[],"stateMutability":"nonpayable","type":"function"},{"inputs":[{"internalType":"uint256","name":"milestoneId","type":"uint256"}],"name":"getMilestone","outputs":[{"internalType":"string","name":"name","type":"string"},{"internalType":"uint256","name":"amount","type":"uint256"},{"internalType":"uint64","name":"dueAt","type":"uint64"},{"internalType":"bool","name":"released","type":"bool"}],"stateMutability":"view","type":"function"},{"inputs":[{"internalType":"uint256","name":"payeeId","type":"uint256"}],"name":"getPayee","outputs":[{"internalType":"address","name":"payee","type":"address"},{"internalType":"uint16","name":"bps","type":"uint16"}],"stateMutability":"view","type":"function"},{"inputs":[],"name":"getSummary","outputs":[{"internalType":"address","name":"token","type":"address"},{"internalType":"address","name":"dealPayer","type":"address"},{"internalType":"address","name":"dealArbiter","type":"address"},{"internalType":"uint256","name":"budget","type":"uint256"},{"internalType":"uint256","name":"funded","type":"uint256"},{"internalType":"uint256","name":"balance","type":"uint256"},{"internalType":"uint256","name":"milestoneTotal","type":"uint256"},{"internalType":"uint256","name":"reserve","type":"uint256"},{"internalType":"bool","name":"isClosed","type":"bool"}],"stateMutability":"view","type":"function"},{"inputs":[],"name":"latePenaltyBps","outputs":[{"internalType":"uint16","name":"","type":"uint16"}],"stateMutability":"view","type":"function"},{"inputs":[],"name":"milestoneCount","outputs":[{"internalType":"uint256","name":"","type":"uint256"}],"stateMutability":"view","type":"function"},{"inputs":[],"name":"payeeCount","outputs":[{"internalType":"uint256","name":"","type":"uint256"}],"stateMutability":"view","type":"function"},{"inputs":[],"name":"payer","outputs":[{"internalType":"address","name":"","type":"address"}],"stateMutability":"view","type":"function"},{"inputs":[{"internalType":"uint256","name":"milestoneId","type":"uint256"}],"name":"releaseMilestone","outputs":[],"stateMutability":"nonpayable","type":"function"},{"inputs":[],"name":"releasedMilestoneCount","outputs":[{"internalType":"uint256","name":"","type":"uint256"}],"stateMutability":"view","type":"function"},{"inputs":[],"name":"reserveAmount","outputs":[{"internalType":"uint256","name":"","type":"uint256"}],"stateMutability":"view","type":"function"},{"inputs":[],"name":"settlementToken","outputs":[{"internalType":"contract IERC20Minimal","name":"","type":"address"}],"stateMutability":"view","type":"function"},{"inputs":[],"name":"totalBudget","outputs":[{"internalType":"uint256","name":"","type":"uint256"}],"stateMutability":"view","type":"function"},{"inputs":[],"name":"totalFunded","outputs":[{"internalType":"uint256","name":"","type":"uint256"}],"stateMutability":"view","type":"function"},{"inputs":[],"name":"totalMilestoneAmount","outputs":[{"internalType":"uint256","name":"","type":"uint256"}],"stateMutability":"view","type":"function"}],"evm":{"bytecode":{"linkReferences":{},"object":"6101406040523462000c0a57620021cc80380390816200001f8162000d1c565b91823961014081838101031262000c0a576200003b8162000d42565b916200004a6020830162000d42565b91620000596040820162000d42565b60608201519092906001600160401b03811162000c0a57820191818101601f8401121562000c0a5782519262000099620000938562000d57565b62000d1c565b9360208086838152019160051b83010191848401831162000c0a57602001905b82821062000d015750505060808101516001600160401b03811162000c0a57810195828201601f8801121562000c0a57865196620000fb620000938962000d57565b976020808a838152019160051b83010191858501831162000c0a57602001905b82821062000ce65750505060a0820151946001600160401b03861162000c0a57838301601f87850101121562000c0a5785830151956200015f620000938862000d57565b966020888281520186860160208360051b85890101011162000c0a57602083870101905b60208360051b8589010101821062000c24575050505060c0830151966001600160401b03881162000c0a57848401601f89860101121562000c0a5787840151620001d1620000938262000d57565b9860208a838152019087870160208460051b838a0101011162000c0a5790602082880101915b60208460051b828a010101831062000c0f575050505060e08401516001600160401b03811162000c0a57840194808501601f8701121562000c0a57855162000243620000938262000d57565b966020888381520192870160208360051b8301011162000c0a579160208301925b60208360051b820101841062000be257505050506200028d610120610100860151950162000d6f565b6001600755926001600160a01b0381161562000bad576001600160a01b0382161562000b78576001600160a01b0383161562000b41578651801515908162000b34575b501562000aef5786518a510362000aaa578751801515908162000a9d575b8162000a91575b508062000a85575b1562000a4057841562000a085761271061ffff851611620009c3576001600160a01b031660805260a05260c05261010082905261012052600093845b845186101562000506576001600160a01b0362000357878762000d7f565b511615620004d15761ffff6200036e878a62000d7f565b5116156200049b576001600160a01b036200038a878762000d7f565b511660045468010000000000000000811015620004855760018101806004558110156200046f5760046000527f8a35acfbc15ff81a39ae7d344fd709f28e8600b4aa8c65c6b64bfe7fe36bd19b0180546001600160a01b031916909117905561ffff620003f8878a62000d7f565b51166005549168010000000000000000831015620004855760018301806005558310156200046f576001926200046692600560005260206000208260041c019161ffff60f084549260041b1692831b921b191617905561ffff6200045d898c62000d7f565b51169062000d94565b95019462000339565b634e487b7160e01b600052603260045260246000fd5b634e487b7160e01b600052604160045260246000fd5b60405162461bcd60e51b815260206004820152600e60248201526d5a65726f2070617965652062707360901b6044820152606490fd5b60405162461bcd60e51b815260206004820152600d60248201526c496e76616c696420706179656560981b6044820152606490fd5b6127108791036200097e57600091825b81518410156200085d576200052c848362000d7f565b515115620008185762000540848462000d7f565b5115620007d35762000553848362000d7f565b5162000560858562000d7f565b516001600160401b0362000575878a62000d7f565b516040519391169190608084016001600160401b0381118582101762000485576040528352602083015260408201526000606082015260065468010000000000000000811015620004855760018101806006558110156200046f576006600052815180517ff652222313e28459528d920b65115c16c04f3efc82aaedc97be59f3f377c0d3f92916001600160401b038211620004855760038302840154600181811c91168015620007c8575b6020821014620007b257601f811162000764575b50602090601f8311600114620006e057620006cb9593836002946001999794600394600092620006d4575b505060001982851b1c191690891b178183028401555b6020850151888383028501015502010190848060401b0360408201511668ff000000000000000060608454930151151560401b1691868060481b03191617179055620006c3868662000d7f565b519062000d94565b93019262000516565b015190508f8062000660565b9060038402850160005260206000209160005b601f19851681106200074b57509360018481999794600394620006cb9a98600298601f1981161062000732575b505050811b0182820284015562000676565b015160001983871b60f8161c191690558f808062000720565b91926020600181928685015181550194019201620006f3565b6003840285016000526020600020601f840160051c810160208510620007aa575b601f830160051c820181106200079d57505062000635565b6000815560010162000785565b508062000785565b634e487b7160e01b600052602260045260246000fd5b90607f169062000621565b60405162461bcd60e51b815260206004820152601560248201527f5a65726f206d696c6573746f6e6520616d6f756e7400000000000000000000006044820152606490fd5b60405162461bcd60e51b815260206004820152601460248201527f456d707479206d696c6573746f6e65206e616d650000000000000000000000006044820152606490fd5b846200086d918060015562000d94565b8060e052156200094b57604051611413908162000db982396080518181816103340152818161056d015281816106350152818161085401528181610bbe015281816110400152611368015260a05181818161025e0152818161065a01528181610832015281816109fc01528181610b960152610e48015260c05181818161011301528181610681015281816107580152610a49015260e0518181816102bb015281816104d9015281816106a701526108910152610100518181816105d801526106dc0152610120518181816105340152818161117301526111a90152f35b60405162461bcd60e51b815260206004820152600b60248201526a16995c9bc8189d5919d95d60aa1b6044820152606490fd5b60405162461bcd60e51b815260206004820152601b60248201527f506179656520627073206d7573742073756d20746f20313030303000000000006044820152606490fd5b60405162461bcd60e51b815260206004820152601360248201527f496e76616c69642070656e616c747920627073000000000000000000000000006044820152606490fd5b60405162461bcd60e51b815260206004820152601060248201526f14995cd95c9d99481c995c5d5a5c995960821b6044820152606490fd5b60405162461bcd60e51b815260206004820152601960248201527f4d696c6573746f6e65206c656e677468206d69736d61746368000000000000006044820152606490fd5b508851865114620002fd565b905089511438620002f5565b60038111159150620002ee565b60405162461bcd60e51b815260206004820152601560248201527f5061796565206c656e677468206d69736d6174636800000000000000000000006044820152606490fd5b60405162461bcd60e51b815260206004820152601360248201527f496e76616c696420706179656520636f756e74000000000000000000000000006044820152606490fd5b60039150111538620002d0565b60405162461bcd60e51b815260206004820152600f60248201526e24b73b30b634b21030b93134ba32b960891b6044820152606490fd5b60405162461bcd60e51b815260206004820152600d60248201526c24b73b30b634b2103830bcb2b960991b6044820152606490fd5b60405162461bcd60e51b815260206004820152600d60248201526c24b73b30b634b2103a37b5b2b760991b6044820152606490fd5b8351916001600160401b038316830362000c0a57602081819482935201940193915062000264565b600080fd5b602080809385518152019301929150620001f7565b81516001600160401b03811162000c0a57888801603f82878b010101121562000c0a578785018101602001516001600160401b03811162000cd157899189604083838a62000c7c601f8401601f191660200162000d1c565b97838952850194010101011162000c0a5760005b878b84831062000cb6575050600060209385018401525050908252918201910162000183565b82846020949360409301010101518282870101520162000c90565b60246000634e487b7160e01b81526041600452fd5b6020809162000cf58462000d6f565b8152019101906200011b565b6020809162000d108462000d42565b815201910190620000b9565b6040519190601f01601f191682016001600160401b038111838210176200048557604052565b51906001600160a01b038216820362000c0a57565b6001600160401b038111620004855760051b60200190565b519061ffff8216820362000c0a57565b80518210156200046f5760209160051b010190565b9190820180921162000da257565b634e487b7160e01b600052601160045260246000fdfe608060408181526004918236101561001657600080fd5b600092833560e01c918262dbe10914610e96575081630681ca5514610e77578163123119cd14610e335781632442e1cb14610cbd578163317debf514610a275781633750d53a146107295781633873032d1461070a5781634051ddac146105fb5781634b09b72a146105c0578163597e1fb51461059c5781637b9e618d146105585781637ee5ee3614610519578163ad044f49146104fc578163c78da39a146104c1578163ca1d209d1461023c578163ce845d1d14610218578163d13136fd1461018657508063d807015514610168578063e595a233146101465763fe25e00a1461010057600080fd5b34610142578160031936011261014257517f00000000000000000000000000000000000000000000000000000000000000006001600160a01b03168152602090f35b5080fd5b5034610142578160031936011261014257602090600254600654149051908152f35b50346101425781600319360112610142576020906002549051908152f35b90508234610215576020366003190112610215575080359080548210156101e257506101c061ffff6101b7836110bc565b929054936110f3565b90549060031b1c169083519260018060a01b039160031b1c1682526020820152f35b606490602084519162461bcd60e51b8352820152600d60248201526c496e76616c696420706179656560981b6044820152fd5b80fd5b505034610142578160031936011261014257602090610235611025565b9051908152f35b919050346104bd576020806003193601126104b9578235926001600160a01b037f00000000000000000000000000000000000000000000000000000000000000008116330361048a57610293600160075414610f7a565b60026007556102a760ff6003541615610fbb565b841561045a5785546102b98682610ff5565b7f00000000000000000000000000000000000000000000000000000000000000001061041e57856102e991610ff5565b86558351838101906323b872dd60e01b82523360248201523060448201528660648201526064815260a0810181811067ffffffffffffffff82111761040b57865251879283929083907f0000000000000000000000000000000000000000000000000000000000000000165af161035e6111da565b816103db575b50156103a45750907fe175d82153fafaa6c2ddb5c107ed1d5e9844a210f223787490b4a194f4e4e3d09184549082519485528401523392a2600160075580f35b915162461bcd60e51b8152918201526013602482015272151c985b9cd9995c919c9bdb4819985a5b1959606a1b6044820152606490fd5b805180159250849083156103f3575b50505038610364565b610403935082018101910161121a565b3883816103ea565b634e487b7160e01b895260418552602489fd5b845162461bcd60e51b81528084018590526016602482015275119d5b991a5b99c8195e18d959591cc8189d5919d95d60521b6044820152606490fd5b50915162461bcd60e51b815291820152600b60248201526a16995c9bc8185b5bdd5b9d60aa1b6044820152606490fd5b50915162461bcd60e51b815291820152600a60248201526927b7363c903830bcb2b960b11b6044820152606490fd5b8380fd5b8280fd5b505034610142578160031936011261014257602090517f00000000000000000000000000000000000000000000000000000000000000008152f35b505034610142578160031936011261014257602091549051908152f35b5050346101425781600319360112610142576020905161ffff7f0000000000000000000000000000000000000000000000000000000000000000168152f35b505034610142578160031936011261014257517f00000000000000000000000000000000000000000000000000000000000000006001600160a01b03168152602090f35b50503461014257816003193601126101425760209060ff6003541690519015158152f35b505034610142578160031936011261014257602090517f00000000000000000000000000000000000000000000000000000000000000008152f35b5050346101425781600319360112610142579054610120916001600160a01b0391610624611025565b6001549160ff6003541693805195807f0000000000000000000000000000000000000000000000000000000000000000168752807f00000000000000000000000000000000000000000000000000000000000000001660208801527f000000000000000000000000000000000000000000000000000000000000000016908601527f00000000000000000000000000000000000000000000000000000000000000006060860152608085015260a084015260c08301527f000000000000000000000000000000000000000000000000000000000000000060e08301521515610100820152f35b5050346101425781600319360112610142576020906001549051908152f35b9050346104bd57602091826003193601126104b95781359182151593848403610a23576001600160a01b0391337f000000000000000000000000000000000000000000000000000000000000000084161480159190826109f8575b156109bd57610797600160075414610f7a565b60026007556003549160ff8316610984578661087e575b5050917f4cef784e3325791b3352c93c13490cc8bfd5c5374cb1c35abcda8e479f1389d895939160016060969460ff1916176003556107eb611025565b889289958261080c575b5050508251948552840152820152a1600160075580f35b9195911561082757505061081f84611303565b3880806107f5565b9250938061087991937f0000000000000000000000000000000000000000000000000000000000000000907f000000000000000000000000000000000000000000000000000000000000000016611232565b61081f565b61094157600254600654036108fe5787547f0000000000000000000000000000000000000000000000000000000000000000036108bb57806107ae565b845162461bcd60e51b8152908101839052601960248201527f4465616c206d7573742062652066756c6c792066756e646564000000000000006044820152606490fd5b845162461bcd60e51b8152908101839052601f60248201527f416c6c206d696c6573746f6e6573206d7573742062652072656c6561736564006044820152606490fd5b845162461bcd60e51b8152908101839052601e60248201527f5375636365737366756c20636c6f7365206e65656473206172626974657200006044820152606490fd5b855162461bcd60e51b815280830185905260136024820152721119585b08185b1c9958591e4818db1bdcd959606a1b6044820152606490fd5b845162461bcd60e51b8152908101839052601560248201527427b7363c9030b93134ba32b91037b9103830bcb2b960591b6044820152606490fd5b50837f0000000000000000000000000000000000000000000000000000000000000000163314610784565b8580fd5b9050346104bd57602090816003193601126104b9578035926001600160a01b037f000000000000000000000000000000000000000000000000000000000000000081163303610c8c57610a7e600160075414610f7a565b6002600755610a9260ff6003541615610fbb565b610a9f6006548610610eb1565b610aa885610ef1565b506002810193845460ff81861c16610c49576001610ac4611025565b930192835411610c065768ff00000000000000001916680100000000000000001785556002546001810191908210610bf35750917f5e85b5843cdd9b3b8d34f7241a238e9638486675925145ab71603fdbdb58c37c95939160609593600255610b3a67ffffffffffffffff825495541685611146565b918483610b63575b5050610b4d84611303565b54938251948552840152820152a2600160075580f35b610b709195508390611018565b93887f657e1349d31fbdecd505da5d020e3c437420a0c17a558701912dc90871e0ff5a877f000000000000000000000000000000000000000000000000000000000000000093610be38786837f000000000000000000000000000000000000000000000000000000000000000016611232565b8751948786521693a33880610b42565b634e487b7160e01b895260119052602488fd5b845162461bcd60e51b8152808301889052601a60248201527f496e73756666696369656e74207661756c742062616c616e63650000000000006044820152606490fd5b845162461bcd60e51b8152808301889052601a60248201527f4d696c6573746f6e6520616c72656164792072656c65617365640000000000006044820152606490fd5b5091606492519162461bcd60e51b8352820152600c60248201526b27b7363c9030b93134ba32b960a11b6044820152fd5b9050346104bd57602091826003193601126104b957610ce98235610ce46006548210610eb1565b610ef1565b5091600193600184015491600285015494845196889180548060011c9460018216908115610e29575b8787108214610e165750858b528a9493929187908215610df4575050600114610db8575b5050610d4c925097959397969492960384610f42565b805195869460808652845194856080880152815b868110610da157505085850160a0908101919091529585015267ffffffffffffffff8216848201521c60ff1615156060830152601f01601f19168101030190f35b8082018901518a820160a001528997508801610d60565b8592508a52818a20908a915b858310610ddc575050610d4c93508201013880610d36565b8054838c018501528a94508693909201918101610dc4565b9250935050610d4c94915060ff191682840152151560051b8201013880610d36565b634e487b7160e01b8d526022905260248cfd5b95607f1695610d12565b505034610142578160031936011261014257517f00000000000000000000000000000000000000000000000000000000000000006001600160a01b03168152602090f35b5050346101425781600319360112610142576020906006549051908152f35b8491346104bd57826003193601126104bd5760209250548152f35b15610eb857565b60405162461bcd60e51b8152602060048201526011602482015270496e76616c6964206d696c6573746f6e6560781b6044820152606490fd5b600654811015610f2c576003906006600052027ff652222313e28459528d920b65115c16c04f3efc82aaedc97be59f3f377c0d3f0190600090565b634e487b7160e01b600052603260045260246000fd5b90601f8019910116810190811067ffffffffffffffff821117610f6457604052565b634e487b7160e01b600052604160045260246000fd5b15610f8157565b60405162461bcd60e51b81526020600482015260126024820152711499595b9d1c985b98de48189b1bd8dad95960721b6044820152606490fd5b15610fc257565b60405162461bcd60e51b815260206004820152600b60248201526a1119585b0818db1bdcd95960aa1b6044820152606490fd5b9190820180921161100257565b634e487b7160e01b600052601160045260246000fd5b9190820391821161100257565b6040516370a0823160e01b81523060048201526020816024817f00000000000000000000000000000000000000000000000000000000000000006001600160a01b03165afa9081156110b05760009161107c575090565b90506020813d6020116110a8575b8161109760209383610f42565b810103126110a3575190565b600080fd5b3d915061108a565b6040513d6000823e3d90fd5b600454811015610f2c5760046000527f8a35acfbc15ff81a39ae7d344fd709f28e8600b4aa8c65c6b64bfe7fe36bd19b0190600090565b90600554821015610f2c576005600052601e8260041c7f036b6384b5eca791c62761152d0c79bb0604c104a5fb6f4eb0703f3154bb3db0019260011b1690565b8181029291811591840414171561100257565b9067ffffffffffffffff1680159081156111cf575b5080156111a3575b61119d576111996127109161ffff7f00000000000000000000000000000000000000000000000000000000000000001690611133565b0490565b50600090565b5061ffff7f00000000000000000000000000000000000000000000000000000000000000001615611163565b90504211153861115b565b3d15611215573d9067ffffffffffffffff8211610f645760405191611209601f8201601f191660200184610f42565b82523d6000602084013e565b606090565b908160209103126110a3575180151581036110a35790565b60405163a9059cbb60e01b602082019081526001600160a01b03909316602482015260448082019490945292835260808301929167ffffffffffffffff841183851017610f64576000809493819460405251925af161128f6111da565b816112d4575b501561129d57565b60405162461bcd60e51b815260206004820152600f60248201526e151c985b9cd9995c8819985a5b1959608a1b6044820152606490fd5b80518015925082156112e9575b505038611295565b6112fc925060208091830101910161121a565b38806112e1565b80156113da578060005b6004805490818310156113d35760001982019182116113be57506001919081036113935761133b8380611018565b9280611349575b500161130d565b61138d90838060a01b038061135d856110bc565b90549060031b1c16907f000000000000000000000000000000000000000000000000000000000000000016611232565b38611342565b61133b6127106113b661ffff6113a8856110f3565b90549060031b1c1687611133565b048094611018565b601190634e487b7160e01b6000525260246000fd5b5050505050565b5056fea2646970667358221220b6b2f0ac64aa4ccc1a0b896796bd6e30fedab27a8fef7124ae00780282babebb64736f6c63430008180033","opcodes":"PUSH2 0x140 PUSH1 0x40 MSTORE CALLVALUE PUSH3 0xC0A JUMPI PUSH3 0x21CC DUP1 CODESIZE SUB SWAP1 DUP2 PUSH3 0x1F DUP2 PUSH3 0xD1C JUMP JUMPDEST SWAP2 DUP3 CODECOPY PUSH2 0x140 DUP2 DUP4 DUP2 ADD SUB SLT PUSH3 0xC0A JUMPI PUSH3 0x3B DUP2 PUSH3 0xD42 JUMP JUMPDEST SWAP2 PUSH3 0x4A PUSH1 0x20 DUP4 ADD PUSH3 0xD42 JUMP JUMPDEST SWAP2 PUSH3 0x59 PUSH1 0x40 DUP3 ADD PUSH3 0xD42 JUMP JUMPDEST PUSH1 0x60 DUP3 ADD MLOAD SWAP1 SWAP3 SWAP1 PUSH1 0x1 PUSH1 0x1 PUSH1 0x40 SHL SUB DUP2 GT PUSH3 0xC0A JUMPI DUP3 ADD SWAP2 DUP2 DUP2 ADD PUSH1 0x1F DUP5 ADD SLT ISZERO PUSH3 0xC0A JUMPI DUP3 MLOAD SWAP3 PUSH3 0x99 PUSH3 0x93 DUP6 PUSH3 0xD57 JUMP JUMPDEST PUSH3 0xD1C JUMP JUMPDEST SWAP4 PUSH1 0x20 DUP1 DUP7 DUP4 DUP2 MSTORE ADD SWAP2 PUSH1 0x5 SHL DUP4 ADD ADD SWAP2 DUP5 DUP5 ADD DUP4 GT PUSH3 0xC0A JUMPI PUSH1 0x20 ADD SWAP1 JUMPDEST DUP3 DUP3 LT PUSH3 0xD01 JUMPI POP POP POP PUSH1 0x80 DUP2 ADD MLOAD PUSH1 0x1 PUSH1 0x1 PUSH1 0x40 SHL SUB DUP2 GT PUSH3 0xC0A JUMPI DUP2 ADD SWAP6 DUP3 DUP3 ADD PUSH1 0x1F DUP9 ADD SLT ISZERO PUSH3 0xC0A JUMPI DUP7 MLOAD SWAP7 PUSH3 0xFB PUSH3 0x93 DUP10 PUSH3 0xD57 JUMP JUMPDEST SWAP8 PUSH1 0x20 DUP1 DUP11 DUP4 DUP2 MSTORE ADD SWAP2 PUSH1 0x5 SHL DUP4 ADD ADD SWAP2 DUP6 DUP6 ADD DUP4 GT PUSH3 0xC0A JUMPI PUSH1 0x20 ADD SWAP1 JUMPDEST DUP3 DUP3 LT PUSH3 0xCE6 JUMPI POP POP POP PUSH1 0xA0 DUP3 ADD MLOAD SWAP5 PUSH1 0x1 PUSH1 0x1 PUSH1 0x40 SHL SUB DUP7 GT PUSH3 0xC0A JUMPI DUP4 DUP4 ADD PUSH1 0x1F DUP8 DUP6 ADD ADD SLT ISZERO PUSH3 0xC0A JUMPI DUP6 DUP4 ADD MLOAD SWAP6 PUSH3 0x15F PUSH3 0x93 DUP9 PUSH3 0xD57 JUMP JUMPDEST SWAP7 PUSH1 0x20 DUP9 DUP3 DUP2 MSTORE ADD DUP7 DUP7 ADD PUSH1 0x20 DUP4 PUSH1 0x5 SHL DUP6 DUP10 ADD ADD ADD GT PUSH3 0xC0A JUMPI PUSH1 0x20 DUP4 DUP8 ADD ADD SWAP1 JUMPDEST PUSH1 0x20 DUP4 PUSH1 0x5 SHL DUP6 DUP10 ADD ADD ADD DUP3 LT PUSH3 0xC24 JUMPI POP POP POP POP PUSH1 0xC0 DUP4 ADD MLOAD SWAP7 PUSH1 0x1 PUSH1 0x1 PUSH1 0x40 SHL SUB DUP9 GT PUSH3 0xC0A JUMPI DUP5 DUP5 ADD PUSH1 0x1F DUP10 DUP7 ADD ADD SLT ISZERO PUSH3 0xC0A JUMPI DUP8 DUP5 ADD MLOAD PUSH3 0x1D1 PUSH3 0x93 DUP3 PUSH3 0xD57 JUMP JUMPDEST SWAP9 PUSH1 0x20 DUP11 DUP4 DUP2 MSTORE ADD SWAP1 DUP8 DUP8 ADD PUSH1 0x20 DUP5 PUSH1 0x5 SHL DUP4 DUP11 ADD ADD ADD GT PUSH3 0xC0A JUMPI SWAP1 PUSH1 0x20 DUP3 DUP9 ADD ADD SWAP2 JUMPDEST PUSH1 0x20 DUP5 PUSH1 0x5 SHL DUP3 DUP11 ADD ADD ADD DUP4 LT PUSH3 0xC0F JUMPI POP POP POP POP PUSH1 0xE0 DUP5 ADD MLOAD PUSH1 0x1 PUSH1 0x1 PUSH1 0x40 SHL SUB DUP2 GT PUSH3 0xC0A JUMPI DUP5 ADD SWAP5 DUP1 DUP6 ADD PUSH1 0x1F DUP8 ADD SLT ISZERO PUSH3 0xC0A JUMPI DUP6 MLOAD PUSH3 0x243 PUSH3 0x93 DUP3 PUSH3 0xD57 JUMP JUMPDEST SWAP7 PUSH1 0x20 DUP9 DUP4 DUP2 MSTORE ADD SWAP3 DUP8 ADD PUSH1 0x20 DUP4 PUSH1 0x5 SHL DUP4 ADD ADD GT PUSH3 0xC0A JUMPI SWAP2 PUSH1 0x20 DUP4 ADD SWAP3 JUMPDEST PUSH1 0x20 DUP4 PUSH1 0x5 SHL DUP3 ADD ADD DUP5 LT PUSH3 0xBE2 JUMPI POP POP POP POP PUSH3 0x28D PUSH2 0x120 PUSH2 0x100 DUP7 ADD MLOAD SWAP6 ADD PUSH3 0xD6F JUMP JUMPDEST PUSH1 0x1 PUSH1 0x7 SSTORE SWAP3 PUSH1 0x1 PUSH1 0x1 PUSH1 0xA0 SHL SUB DUP2 AND ISZERO PUSH3 0xBAD JUMPI PUSH1 0x1 PUSH1 0x1 PUSH1 0xA0 SHL SUB DUP3 AND ISZERO PUSH3 0xB78 JUMPI PUSH1 0x1 PUSH1 0x1 PUSH1 0xA0 SHL SUB DUP4 AND ISZERO PUSH3 0xB41 JUMPI DUP7 MLOAD DUP1 ISZERO ISZERO SWAP1 DUP2 PUSH3 0xB34 JUMPI JUMPDEST POP ISZERO PUSH3 0xAEF JUMPI DUP7 MLOAD DUP11 MLOAD SUB PUSH3 0xAAA JUMPI DUP8 MLOAD DUP1 ISZERO ISZERO SWAP1 DUP2 PUSH3 0xA9D JUMPI JUMPDEST DUP2 PUSH3 0xA91 JUMPI JUMPDEST POP DUP1 PUSH3 0xA85 JUMPI JUMPDEST ISZERO PUSH3 0xA40 JUMPI DUP5 ISZERO PUSH3 0xA08 JUMPI PUSH2 0x2710 PUSH2 0xFFFF DUP6 AND GT PUSH3 0x9C3 JUMPI PUSH1 0x1 PUSH1 0x1 PUSH1 0xA0 SHL SUB AND PUSH1 0x80 MSTORE PUSH1 0xA0 MSTORE PUSH1 0xC0 MSTORE PUSH2 0x100 DUP3 SWAP1 MSTORE PUSH2 0x120 MSTORE PUSH1 0x0 SWAP4 DUP5 JUMPDEST DUP5 MLOAD DUP7 LT ISZERO PUSH3 0x506 JUMPI PUSH1 0x1 PUSH1 0x1 PUSH1 0xA0 SHL SUB PUSH3 0x357 DUP8 DUP8 PUSH3 0xD7F JUMP JUMPDEST MLOAD AND ISZERO PUSH3 0x4D1 JUMPI PUSH2 0xFFFF PUSH3 0x36E DUP8 DUP11 PUSH3 0xD7F JUMP JUMPDEST MLOAD AND ISZERO PUSH3 0x49B JUMPI PUSH1 0x1 PUSH1 0x1 PUSH1 0xA0 SHL SUB PUSH3 0x38A DUP8 DUP8 PUSH3 0xD7F JUMP JUMPDEST MLOAD AND PUSH1 0x4 SLOAD PUSH9 0x10000000000000000 DUP2 LT ISZERO PUSH3 0x485 JUMPI PUSH1 0x1 DUP2 ADD DUP1 PUSH1 0x4 SSTORE DUP2 LT ISZERO PUSH3 0x46F JUMPI PUSH1 0x4 PUSH1 0x0 MSTORE PUSH32 0x8A35ACFBC15FF81A39AE7D344FD709F28E8600B4AA8C65C6B64BFE7FE36BD19B ADD DUP1 SLOAD PUSH1 0x1 PUSH1 0x1 PUSH1 0xA0 SHL SUB NOT AND SWAP1 SWAP2 OR SWAP1 SSTORE PUSH2 0xFFFF PUSH3 0x3F8 DUP8 DUP11 PUSH3 0xD7F JUMP JUMPDEST MLOAD AND PUSH1 0x5 SLOAD SWAP2 PUSH9 0x10000000000000000 DUP4 LT ISZERO PUSH3 0x485 JUMPI PUSH1 0x1 DUP4 ADD DUP1 PUSH1 0x5 SSTORE DUP4 LT ISZERO PUSH3 0x46F JUMPI PUSH1 0x1 SWAP3 PUSH3 0x466 SWAP3 PUSH1 0x5 PUSH1 0x0 MSTORE PUSH1 0x20 PUSH1 0x0 KECCAK256 DUP3 PUSH1 0x4 SHR ADD SWAP2 PUSH2 0xFFFF PUSH1 0xF0 DUP5 SLOAD SWAP3 PUSH1 0x4 SHL AND SWAP3 DUP4 SHL SWAP3 SHL NOT AND OR SWAP1 SSTORE PUSH2 0xFFFF PUSH3 0x45D DUP10 DUP13 PUSH3 0xD7F JUMP JUMPDEST MLOAD AND SWAP1 PUSH3 0xD94 JUMP JUMPDEST SWAP6 ADD SWAP5 PUSH3 0x339 JUMP JUMPDEST PUSH4 0x4E487B71 PUSH1 0xE0 SHL PUSH1 0x0 MSTORE PUSH1 0x32 PUSH1 0x4 MSTORE PUSH1 0x24 PUSH1 0x0 REVERT JUMPDEST PUSH4 0x4E487B71 PUSH1 0xE0 SHL PUSH1 0x0 MSTORE PUSH1 0x41 PUSH1 0x4 MSTORE PUSH1 0x24 PUSH1 0x0 REVERT JUMPDEST PUSH1 0x40 MLOAD PUSH3 0x461BCD PUSH1 0xE5 SHL DUP2 MSTORE PUSH1 0x20 PUSH1 0x4 DUP3 ADD MSTORE PUSH1 0xE PUSH1 0x24 DUP3 ADD MSTORE PUSH14 0x5A65726F20706179656520627073 PUSH1 0x90 SHL PUSH1 0x44 DUP3 ADD MSTORE PUSH1 0x64 SWAP1 REVERT JUMPDEST PUSH1 0x40 MLOAD PUSH3 0x461BCD PUSH1 0xE5 SHL DUP2 MSTORE PUSH1 0x20 PUSH1 0x4 DUP3 ADD MSTORE PUSH1 0xD PUSH1 0x24 DUP3 ADD MSTORE PUSH13 0x496E76616C6964207061796565 PUSH1 0x98 SHL PUSH1 0x44 DUP3 ADD MSTORE PUSH1 0x64 SWAP1 REVERT JUMPDEST PUSH2 0x2710 DUP8 SWAP2 SUB PUSH3 0x97E JUMPI PUSH1 0x0 SWAP2 DUP3 JUMPDEST DUP2 MLOAD DUP5 LT ISZERO PUSH3 0x85D JUMPI PUSH3 0x52C DUP5 DUP4 PUSH3 0xD7F JUMP JUMPDEST MLOAD MLOAD ISZERO PUSH3 0x818 JUMPI PUSH3 0x540 DUP5 DUP5 PUSH3 0xD7F JUMP JUMPDEST MLOAD ISZERO PUSH3 0x7D3 JUMPI PUSH3 0x553 DUP5 DUP4 PUSH3 0xD7F JUMP JUMPDEST MLOAD PUSH3 0x560 DUP6 DUP6 PUSH3 0xD7F JUMP JUMPDEST MLOAD PUSH1 0x1 PUSH1 0x1 PUSH1 0x40 SHL SUB PUSH3 0x575 DUP8 DUP11 PUSH3 0xD7F JUMP JUMPDEST MLOAD PUSH1 0x40 MLOAD SWAP4 SWAP2 AND SWAP2 SWAP1 PUSH1 0x80 DUP5 ADD PUSH1 0x1 PUSH1 0x1 PUSH1 0x40 SHL SUB DUP2 GT DUP6 DUP3 LT OR PUSH3 0x485 JUMPI PUSH1 0x40 MSTORE DUP4 MSTORE PUSH1 0x20 DUP4 ADD MSTORE PUSH1 0x40 DUP3 ADD MSTORE PUSH1 0x0 PUSH1 0x60 DUP3 ADD MSTORE PUSH1 0x6 SLOAD PUSH9 0x10000000000000000 DUP2 LT ISZERO PUSH3 0x485 JUMPI PUSH1 0x1 DUP2 ADD DUP1 PUSH1 0x6 SSTORE DUP2 LT ISZERO PUSH3 0x46F JUMPI PUSH1 0x6 PUSH1 0x0 MSTORE DUP2 MLOAD DUP1 MLOAD PUSH32 0xF652222313E28459528D920B65115C16C04F3EFC82AAEDC97BE59F3F377C0D3F SWAP3 SWAP2 PUSH1 0x1 PUSH1 0x1 PUSH1 0x40 SHL SUB DUP3 GT PUSH3 0x485 JUMPI PUSH1 0x3 DUP4 MUL DUP5 ADD SLOAD PUSH1 0x1 DUP2 DUP2 SHR SWAP2 AND DUP1 ISZERO PUSH3 0x7C8 JUMPI JUMPDEST PUSH1 0x20 DUP3 LT EQ PUSH3 0x7B2 JUMPI PUSH1 0x1F DUP2 GT PUSH3 0x764 JUMPI JUMPDEST POP PUSH1 0x20 SWAP1 PUSH1 0x1F DUP4 GT PUSH1 0x1 EQ PUSH3 0x6E0 JUMPI PUSH3 0x6CB SWAP6 SWAP4 DUP4 PUSH1 0x2 SWAP5 PUSH1 0x1 SWAP10 SWAP8 SWAP5 PUSH1 0x3 SWAP5 PUSH1 0x0 SWAP3 PUSH3 0x6D4 JUMPI JUMPDEST POP POP PUSH1 0x0 NOT DUP3 DUP6 SHL SHR NOT AND SWAP1 DUP10 SHL OR DUP2 DUP4 MUL DUP5 ADD SSTORE JUMPDEST PUSH1 0x20 DUP6 ADD MLOAD DUP9 DUP4 DUP4 MUL DUP6 ADD ADD SSTORE MUL ADD ADD SWAP1 DUP5 DUP1 PUSH1 0x40 SHL SUB PUSH1 0x40 DUP3 ADD MLOAD AND PUSH9 0xFF0000000000000000 PUSH1 0x60 DUP5 SLOAD SWAP4 ADD MLOAD ISZERO ISZERO PUSH1 0x40 SHL AND SWAP2 DUP7 DUP1 PUSH1 0x48 SHL SUB NOT AND OR OR SWAP1 SSTORE PUSH3 0x6C3 DUP7 DUP7 PUSH3 0xD7F JUMP JUMPDEST MLOAD SWAP1 PUSH3 0xD94 JUMP JUMPDEST SWAP4 ADD SWAP3 PUSH3 0x516 JUMP JUMPDEST ADD MLOAD SWAP1 POP DUP16 DUP1 PUSH3 0x660 JUMP JUMPDEST SWAP1 PUSH1 0x3 DUP5 MUL DUP6 ADD PUSH1 0x0 MSTORE PUSH1 0x20 PUSH1 0x0 KECCAK256 SWAP2 PUSH1 0x0 JUMPDEST PUSH1 0x1F NOT DUP6 AND DUP2 LT PUSH3 0x74B JUMPI POP SWAP4 PUSH1 0x1 DUP5 DUP2 SWAP10 SWAP8 SWAP5 PUSH1 0x3 SWAP5 PUSH3 0x6CB SWAP11 SWAP9 PUSH1 0x2 SWAP9 PUSH1 0x1F NOT DUP2 AND LT PUSH3 0x732 JUMPI JUMPDEST POP POP POP DUP2 SHL ADD DUP3 DUP3 MUL DUP5 ADD SSTORE PUSH3 0x676 JUMP JUMPDEST ADD MLOAD PUSH1 0x0 NOT DUP4 DUP8 SHL PUSH1 0xF8 AND SHR NOT AND SWAP1 SSTORE DUP16 DUP1 DUP1 PUSH3 0x720 JUMP JUMPDEST SWAP2 SWAP3 PUSH1 0x20 PUSH1 0x1 DUP2 SWAP3 DUP7 DUP6 ADD MLOAD DUP2 SSTORE ADD SWAP5 ADD SWAP3 ADD PUSH3 0x6F3 JUMP JUMPDEST PUSH1 0x3 DUP5 MUL DUP6 ADD PUSH1 0x0 MSTORE PUSH1 0x20 PUSH1 0x0 KECCAK256 PUSH1 0x1F DUP5 ADD PUSH1 0x5 SHR DUP2 ADD PUSH1 0x20 DUP6 LT PUSH3 0x7AA JUMPI JUMPDEST PUSH1 0x1F DUP4 ADD PUSH1 0x5 SHR DUP3 ADD DUP2 LT PUSH3 0x79D JUMPI POP POP PUSH3 0x635 JUMP JUMPDEST PUSH1 0x0 DUP2 SSTORE PUSH1 0x1 ADD PUSH3 0x785 JUMP JUMPDEST POP DUP1 PUSH3 0x785 JUMP JUMPDEST PUSH4 0x4E487B71 PUSH1 0xE0 SHL PUSH1 0x0 MSTORE PUSH1 0x22 PUSH1 0x4 MSTORE PUSH1 0x24 PUSH1 0x0 REVERT JUMPDEST SWAP1 PUSH1 0x7F AND SWAP1 PUSH3 0x621 JUMP JUMPDEST PUSH1 0x40 MLOAD PUSH3 0x461BCD PUSH1 0xE5 SHL DUP2 MSTORE PUSH1 0x20 PUSH1 0x4 DUP3 ADD MSTORE PUSH1 0x15 PUSH1 0x24 DUP3 ADD MSTORE PUSH32 0x5A65726F206D696C6573746F6E6520616D6F756E740000000000000000000000 PUSH1 0x44 DUP3 ADD MSTORE PUSH1 0x64 SWAP1 REVERT JUMPDEST PUSH1 0x40 MLOAD PUSH3 0x461BCD PUSH1 0xE5 SHL DUP2 MSTORE PUSH1 0x20 PUSH1 0x4 DUP3 ADD MSTORE PUSH1 0x14 PUSH1 0x24 DUP3 ADD MSTORE PUSH32 0x456D707479206D696C6573746F6E65206E616D65000000000000000000000000 PUSH1 0x44 DUP3 ADD MSTORE PUSH1 0x64 SWAP1 REVERT JUMPDEST DUP5 PUSH3 0x86D SWAP2 DUP1 PUSH1 0x1 SSTORE PUSH3 0xD94 JUMP JUMPDEST DUP1 PUSH1 0xE0 MSTORE ISZERO PUSH3 0x94B JUMPI PUSH1 0x40 MLOAD PUSH2 0x1413 SWAP1 DUP2 PUSH3 0xDB9 DUP3 CODECOPY PUSH1 0x80 MLOAD DUP2 DUP2 DUP2 PUSH2 0x334 ADD MSTORE DUP2 DUP2 PUSH2 0x56D ADD MSTORE DUP2 DUP2 PUSH2 0x635 ADD MSTORE DUP2 DUP2 PUSH2 0x854 ADD MSTORE DUP2 DUP2 PUSH2 0xBBE ADD MSTORE DUP2 DUP2 PUSH2 0x1040 ADD MSTORE PUSH2 0x1368 ADD MSTORE PUSH1 0xA0 MLOAD DUP2 DUP2 DUP2 PUSH2 0x25E ADD MSTORE DUP2 DUP2 PUSH2 0x65A ADD MSTORE DUP2 DUP2 PUSH2 0x832 ADD MSTORE DUP2 DUP2 PUSH2 0x9FC ADD MSTORE DUP2 DUP2 PUSH2 0xB96 ADD MSTORE PUSH2 0xE48 ADD MSTORE PUSH1 0xC0 MLOAD DUP2 DUP2 DUP2 PUSH2 0x113 ADD MSTORE DUP2 DUP2 PUSH2 0x681 ADD MSTORE DUP2 DUP2 PUSH2 0x758 ADD MSTORE PUSH2 0xA49 ADD MSTORE PUSH1 0xE0 MLOAD DUP2 DUP2 DUP2 PUSH2 0x2BB ADD MSTORE DUP2 DUP2 PUSH2 0x4D9 ADD MSTORE DUP2 DUP2 PUSH2 0x6A7 ADD MSTORE PUSH2 0x891 ADD MSTORE PUSH2 0x100 MLOAD DUP2 DUP2 DUP2 PUSH2 0x5D8 ADD MSTORE PUSH2 0x6DC ADD MSTORE PUSH2 0x120 MLOAD DUP2 DUP2 DUP2 PUSH2 0x534 ADD MSTORE DUP2 DUP2 PUSH2 0x1173 ADD MSTORE PUSH2 0x11A9 ADD MSTORE RETURN JUMPDEST PUSH1 0x40 MLOAD PUSH3 0x461BCD PUSH1 0xE5 SHL DUP2 MSTORE PUSH1 0x20 PUSH1 0x4 DUP3 ADD MSTORE PUSH1 0xB PUSH1 0x24 DUP3 ADD MSTORE PUSH11 0x16995C9BC8189D5919D95D PUSH1 0xAA SHL PUSH1 0x44 DUP3 ADD MSTORE PUSH1 0x64 SWAP1 REVERT JUMPDEST PUSH1 0x40 MLOAD PUSH3 0x461BCD PUSH1 0xE5 SHL DUP2 MSTORE PUSH1 0x20 PUSH1 0x4 DUP3 ADD MSTORE PUSH1 0x1B PUSH1 0x24 DUP3 ADD MSTORE PUSH32 0x506179656520627073206D7573742073756D20746F2031303030300000000000 PUSH1 0x44 DUP3 ADD MSTORE PUSH1 0x64 SWAP1 REVERT JUMPDEST PUSH1 0x40 MLOAD PUSH3 0x461BCD PUSH1 0xE5 SHL DUP2 MSTORE PUSH1 0x20 PUSH1 0x4 DUP3 ADD MSTORE PUSH1 0x13 PUSH1 0x24 DUP3 ADD MSTORE PUSH32 0x496E76616C69642070656E616C74792062707300000000000000000000000000 PUSH1 0x44 DUP3 ADD MSTORE PUSH1 0x64 SWAP1 REVERT JUMPDEST PUSH1 0x40 MLOAD PUSH3 0x461BCD PUSH1 0xE5 SHL DUP2 MSTORE PUSH1 0x20 PUSH1 0x4 DUP3 ADD MSTORE PUSH1 0x10 PUSH1 0x24 DUP3 ADD MSTORE PUSH16 0x14995CD95C9D99481C995C5D5A5C9959 PUSH1 0x82 SHL PUSH1 0x44 DUP3 ADD MSTORE PUSH1 0x64 SWAP1 REVERT JUMPDEST PUSH1 0x40 MLOAD PUSH3 0x461BCD PUSH1 0xE5 SHL DUP2 MSTORE PUSH1 0x20 PUSH1 0x4 DUP3 ADD MSTORE PUSH1 0x19 PUSH1 0x24 DUP3 ADD MSTORE PUSH32 0x4D696C6573746F6E65206C656E677468206D69736D6174636800000000000000 PUSH1 0x44 DUP3 ADD MSTORE PUSH1 0x64 SWAP1 REVERT JUMPDEST POP DUP9 MLOAD DUP7 MLOAD EQ PUSH3 0x2FD JUMP JUMPDEST SWAP1 POP DUP10 MLOAD EQ CODESIZE PUSH3 0x2F5 JUMP JUMPDEST PUSH1 0x3 DUP2 GT ISZERO SWAP2 POP PUSH3 0x2EE JUMP JUMPDEST PUSH1 0x40 MLOAD PUSH3 0x461BCD PUSH1 0xE5 SHL DUP2 MSTORE PUSH1 0x20 PUSH1 0x4 DUP3 ADD MSTORE PUSH1 0x15 PUSH1 0x24 DUP3 ADD MSTORE PUSH32 0x5061796565206C656E677468206D69736D617463680000000000000000000000 PUSH1 0x44 DUP3 ADD MSTORE PUSH1 0x64 SWAP1 REVERT JUMPDEST PUSH1 0x40 MLOAD PUSH3 0x461BCD PUSH1 0xE5 SHL DUP2 MSTORE PUSH1 0x20 PUSH1 0x4 DUP3 ADD MSTORE PUSH1 0x13 PUSH1 0x24 DUP3 ADD MSTORE PUSH32 0x496E76616C696420706179656520636F756E7400000000000000000000000000 PUSH1 0x44 DUP3 ADD MSTORE PUSH1 0x64 SWAP1 REVERT JUMPDEST PUSH1 0x3 SWAP2 POP GT ISZERO CODESIZE PUSH3 0x2D0 JUMP JUMPDEST PUSH1 0x40 MLOAD PUSH3 0x461BCD PUSH1 0xE5 SHL DUP2 MSTORE PUSH1 0x20 PUSH1 0x4 DUP3 ADD MSTORE PUSH1 0xF PUSH1 0x24 DUP3 ADD MSTORE PUSH15 0x24B73B30B634B21030B93134BA32B9 PUSH1 0x89 SHL PUSH1 0x44 DUP3 ADD MSTORE PUSH1 0x64 SWAP1 REVERT JUMPDEST PUSH1 0x40 MLOAD PUSH3 0x461BCD PUSH1 0xE5 SHL DUP2 MSTORE PUSH1 0x20 PUSH1 0x4 DUP3 ADD MSTORE PUSH1 0xD PUSH1 0x24 DUP3 ADD MSTORE PUSH13 0x24B73B30B634B2103830BCB2B9 PUSH1 0x99 SHL PUSH1 0x44 DUP3 ADD MSTORE PUSH1 0x64 SWAP1 REVERT JUMPDEST PUSH1 0x40 MLOAD PUSH3 0x461BCD PUSH1 0xE5 SHL DUP2 MSTORE PUSH1 0x20 PUSH1 0x4 DUP3 ADD MSTORE PUSH1 0xD PUSH1 0x24 DUP3 ADD MSTORE PUSH13 0x24B73B30B634B2103A37B5B2B7 PUSH1 0x99 SHL PUSH1 0x44 DUP3 ADD MSTORE PUSH1 0x64 SWAP1 REVERT JUMPDEST DUP4 MLOAD SWAP2 PUSH1 0x1 PUSH1 0x1 PUSH1 0x40 SHL SUB DUP4 AND DUP4 SUB PUSH3 0xC0A JUMPI PUSH1 0x20 DUP2 DUP2 SWAP5 DUP3 SWAP4 MSTORE ADD SWAP5 ADD SWAP4 SWAP2 POP PUSH3 0x264 JUMP JUMPDEST PUSH1 0x0 DUP1 REVERT JUMPDEST PUSH1 0x20 DUP1 DUP1 SWAP4 DUP6 MLOAD DUP2 MSTORE ADD SWAP4 ADD SWAP3 SWAP2 POP PUSH3 0x1F7 JUMP JUMPDEST DUP2 MLOAD PUSH1 0x1 PUSH1 0x1 PUSH1 0x40 SHL SUB DUP2 GT PUSH3 0xC0A JUMPI DUP9 DUP9 ADD PUSH1 0x3F DUP3 DUP8 DUP12 ADD ADD ADD SLT ISZERO PUSH3 0xC0A JUMPI DUP8 DUP6 ADD DUP2 ADD PUSH1 0x20 ADD MLOAD PUSH1 0x1 PUSH1 0x1 PUSH1 0x40 SHL SUB DUP2 GT PUSH3 0xCD1 JUMPI DUP10 SWAP2 DUP10 PUSH1 0x40 DUP4 DUP4 DUP11 PUSH3 0xC7C PUSH1 0x1F DUP5 ADD PUSH1 0x1F NOT AND PUSH1 0x20 ADD PUSH3 0xD1C JUMP JUMPDEST SWAP8 DUP4 DUP10 MSTORE DUP6 ADD SWAP5 ADD ADD ADD ADD GT PUSH3 0xC0A JUMPI PUSH1 0x0 JUMPDEST DUP8 DUP12 DUP5 DUP4 LT PUSH3 0xCB6 JUMPI POP POP PUSH1 0x0 PUSH1 0x20 SWAP4 DUP6 ADD DUP5 ADD MSTORE POP POP SWAP1 DUP3 MSTORE SWAP2 DUP3 ADD SWAP2 ADD PUSH3 0x183 JUMP JUMPDEST DUP3 DUP5 PUSH1 0x20 SWAP5 SWAP4 PUSH1 0x40 SWAP4 ADD ADD ADD ADD MLOAD DUP3 DUP3 DUP8 ADD ADD MSTORE ADD PUSH3 0xC90 JUMP JUMPDEST PUSH1 0x24 PUSH1 0x0 PUSH4 0x4E487B71 PUSH1 0xE0 SHL DUP2 MSTORE PUSH1 0x41 PUSH1 0x4 MSTORE REVERT JUMPDEST PUSH1 0x20 DUP1 SWAP2 PUSH3 0xCF5 DUP5 PUSH3 0xD6F JUMP JUMPDEST DUP2 MSTORE ADD SWAP2 ADD SWAP1 PUSH3 0x11B JUMP JUMPDEST PUSH1 0x20 DUP1 SWAP2 PUSH3 0xD10 DUP5 PUSH3 0xD42 JUMP JUMPDEST DUP2 MSTORE ADD SWAP2 ADD SWAP1 PUSH3 0xB9 JUMP JUMPDEST PUSH1 0x40 MLOAD SWAP2 SWAP1 PUSH1 0x1F ADD PUSH1 0x1F NOT AND DUP3 ADD PUSH1 0x1 PUSH1 0x1 PUSH1 0x40 SHL SUB DUP2 GT DUP4 DUP3 LT OR PUSH3 0x485 JUMPI PUSH1 0x40 MSTORE JUMP JUMPDEST MLOAD SWAP1 PUSH1 0x1 PUSH1 0x1 PUSH1 0xA0 SHL SUB DUP3 AND DUP3 SUB PUSH3 0xC0A JUMPI JUMP JUMPDEST PUSH1 0x1 PUSH1 0x1 PUSH1 0x40 SHL SUB DUP2 GT PUSH3 0x485 JUMPI PUSH1 0x5 SHL PUSH1 0x20 ADD SWAP1 JUMP JUMPDEST MLOAD SWAP1 PUSH2 0xFFFF DUP3 AND DUP3 SUB PUSH3 0xC0A JUMPI JUMP JUMPDEST DUP1 MLOAD DUP3 LT ISZERO PUSH3 0x46F JUMPI PUSH1 0x20 SWAP2 PUSH1 0x5 SHL ADD ADD SWAP1 JUMP JUMPDEST SWAP2 SWAP1 DUP3 ADD DUP1 SWAP3 GT PUSH3 0xDA2 JUMPI JUMP JUMPDEST PUSH4 0x4E487B71 PUSH1 0xE0 SHL PUSH1 0x0 MSTORE PUSH1 0x11 PUSH1 0x4 MSTORE PUSH1 0x24 PUSH1 0x0 REVERT INVALID PUSH1 0x80 PUSH1 0x40 DUP2 DUP2 MSTORE PUSH1 0x4 SWAP2 DUP3 CALLDATASIZE LT ISZERO PUSH2 0x16 JUMPI PUSH1 0x0 DUP1 REVERT JUMPDEST PUSH1 0x0 SWAP3 DUP4 CALLDATALOAD PUSH1 0xE0 SHR SWAP2 DUP3 PUSH3 0xDBE109 EQ PUSH2 0xE96 JUMPI POP DUP2 PUSH4 0x681CA55 EQ PUSH2 0xE77 JUMPI DUP2 PUSH4 0x123119CD EQ PUSH2 0xE33 JUMPI DUP2 PUSH4 0x2442E1CB EQ PUSH2 0xCBD JUMPI DUP2 PUSH4 0x317DEBF5 EQ PUSH2 0xA27 JUMPI DUP2 PUSH4 0x3750D53A EQ PUSH2 0x729 JUMPI DUP2 PUSH4 0x3873032D EQ PUSH2 0x70A JUMPI DUP2 PUSH4 0x4051DDAC EQ PUSH2 0x5FB JUMPI DUP2 PUSH4 0x4B09B72A EQ PUSH2 0x5C0 JUMPI DUP2 PUSH4 0x597E1FB5 EQ PUSH2 0x59C JUMPI DUP2 PUSH4 0x7B9E618D EQ PUSH2 0x558 JUMPI DUP2 PUSH4 0x7EE5EE36 EQ PUSH2 0x519 JUMPI DUP2 PUSH4 0xAD044F49 EQ PUSH2 0x4FC JUMPI DUP2 PUSH4 0xC78DA39A EQ PUSH2 0x4C1 JUMPI DUP2 PUSH4 0xCA1D209D EQ PUSH2 0x23C JUMPI DUP2 PUSH4 0xCE845D1D EQ PUSH2 0x218 JUMPI DUP2 PUSH4 0xD13136FD EQ PUSH2 0x186 JUMPI POP DUP1 PUSH4 0xD8070155 EQ PUSH2 0x168 JUMPI DUP1 PUSH4 0xE595A233 EQ PUSH2 0x146 JUMPI PUSH4 0xFE25E00A EQ PUSH2 0x100 JUMPI PUSH1 0x0 DUP1 REVERT JUMPDEST CALLVALUE PUSH2 0x142 JUMPI DUP2 PUSH1 0x3 NOT CALLDATASIZE ADD SLT PUSH2 0x142 JUMPI MLOAD PUSH32 0x0 PUSH1 0x1 PUSH1 0x1 PUSH1 0xA0 SHL SUB AND DUP2 MSTORE PUSH1 0x20 SWAP1 RETURN JUMPDEST POP DUP1 REVERT JUMPDEST POP CALLVALUE PUSH2 0x142 JUMPI DUP2 PUSH1 0x3 NOT CALLDATASIZE ADD SLT PUSH2 0x142 JUMPI PUSH1 0x20 SWAP1 PUSH1 0x2 SLOAD PUSH1 0x6 SLOAD EQ SWAP1 MLOAD SWAP1 DUP2 MSTORE RETURN JUMPDEST POP CALLVALUE PUSH2 0x142 JUMPI DUP2 PUSH1 0x3 NOT CALLDATASIZE ADD SLT PUSH2 0x142 JUMPI PUSH1 0x20 SWAP1 PUSH1 0x2 SLOAD SWAP1 MLOAD SWAP1 DUP2 MSTORE RETURN JUMPDEST SWAP1 POP DUP3 CALLVALUE PUSH2 0x215 JUMPI PUSH1 0x20 CALLDATASIZE PUSH1 0x3 NOT ADD SLT PUSH2 0x215 JUMPI POP DUP1 CALLDATALOAD SWAP1 DUP1 SLOAD DUP3 LT ISZERO PUSH2 0x1E2 JUMPI POP PUSH2 0x1C0 PUSH2 0xFFFF PUSH2 0x1B7 DUP4 PUSH2 0x10BC JUMP JUMPDEST SWAP3 SWAP1 SLOAD SWAP4 PUSH2 0x10F3 JUMP JUMPDEST SWAP1 SLOAD SWAP1 PUSH1 0x3 SHL SHR AND SWAP1 DUP4 MLOAD SWAP3 PUSH1 0x1 DUP1 PUSH1 0xA0 SHL SUB SWAP2 PUSH1 0x3 SHL SHR AND DUP3 MSTORE PUSH1 0x20 DUP3 ADD MSTORE RETURN JUMPDEST PUSH1 0x64 SWAP1 PUSH1 0x20 DUP5 MLOAD SWAP2 PUSH3 0x461BCD PUSH1 0xE5 SHL DUP4 MSTORE DUP3 ADD MSTORE PUSH1 0xD PUSH1 0x24 DUP3 ADD MSTORE PUSH13 0x496E76616C6964207061796565 PUSH1 0x98 SHL PUSH1 0x44 DUP3 ADD MSTORE REVERT JUMPDEST DUP1 REVERT JUMPDEST POP POP CALLVALUE PUSH2 0x142 JUMPI DUP2 PUSH1 0x3 NOT CALLDATASIZE ADD SLT PUSH2 0x142 JUMPI PUSH1 0x20 SWAP1 PUSH2 0x235 PUSH2 0x1025 JUMP JUMPDEST SWAP1 MLOAD SWAP1 DUP2 MSTORE RETURN JUMPDEST SWAP2 SWAP1 POP CALLVALUE PUSH2 0x4BD JUMPI PUSH1 0x20 DUP1 PUSH1 0x3 NOT CALLDATASIZE ADD SLT PUSH2 0x4B9 JUMPI DUP3 CALLDATALOAD SWAP3 PUSH1 0x1 PUSH1 0x1 PUSH1 0xA0 SHL SUB PUSH32 0x0 DUP2 AND CALLER SUB PUSH2 0x48A JUMPI PUSH2 0x293 PUSH1 0x1 PUSH1 0x7 SLOAD EQ PUSH2 0xF7A JUMP JUMPDEST PUSH1 0x2 PUSH1 0x7 SSTORE PUSH2 0x2A7 PUSH1 0xFF PUSH1 0x3 SLOAD AND ISZERO PUSH2 0xFBB JUMP JUMPDEST DUP5 ISZERO PUSH2 0x45A JUMPI DUP6 SLOAD PUSH2 0x2B9 DUP7 DUP3 PUSH2 0xFF5 JUMP JUMPDEST PUSH32 0x0 LT PUSH2 0x41E JUMPI DUP6 PUSH2 0x2E9 SWAP2 PUSH2 0xFF5 JUMP JUMPDEST DUP7 SSTORE DUP4 MLOAD DUP4 DUP2 ADD SWAP1 PUSH4 0x23B872DD PUSH1 0xE0 SHL DUP3 MSTORE CALLER PUSH1 0x24 DUP3 ADD MSTORE ADDRESS PUSH1 0x44 DUP3 ADD MSTORE DUP7 PUSH1 0x64 DUP3 ADD MSTORE PUSH1 0x64 DUP2 MSTORE PUSH1 0xA0 DUP2 ADD DUP2 DUP2 LT PUSH8 0xFFFFFFFFFFFFFFFF DUP3 GT OR PUSH2 0x40B JUMPI DUP7 MSTORE MLOAD DUP8 SWAP3 DUP4 SWAP3 SWAP1 DUP4 SWAP1 PUSH32 0x0 AND GAS CALL PUSH2 0x35E PUSH2 0x11DA JUMP JUMPDEST DUP2 PUSH2 0x3DB JUMPI JUMPDEST POP ISZERO PUSH2 0x3A4 JUMPI POP SWAP1 PUSH32 0xE175D82153FAFAA6C2DDB5C107ED1D5E9844A210F223787490B4A194F4E4E3D0 SWAP2 DUP5 SLOAD SWAP1 DUP3 MLOAD SWAP5 DUP6 MSTORE DUP5 ADD MSTORE CALLER SWAP3 LOG2 PUSH1 0x1 PUSH1 0x7 SSTORE DUP1 RETURN JUMPDEST SWAP2 MLOAD PUSH3 0x461BCD PUSH1 0xE5 SHL DUP2 MSTORE SWAP2 DUP3 ADD MSTORE PUSH1 0x13 PUSH1 0x24 DUP3 ADD MSTORE PUSH19 0x151C985B9CD9995C919C9BDB4819985A5B1959 PUSH1 0x6A SHL PUSH1 0x44 DUP3 ADD MSTORE PUSH1 0x64 SWAP1 REVERT JUMPDEST DUP1 MLOAD DUP1 ISZERO SWAP3 POP DUP5 SWAP1 DUP4 ISZERO PUSH2 0x3F3 JUMPI JUMPDEST POP POP POP CODESIZE PUSH2 0x364 JUMP JUMPDEST PUSH2 0x403 SWAP4 POP DUP3 ADD DUP2 ADD SWAP2 ADD PUSH2 0x121A JUMP JUMPDEST CODESIZE DUP4 DUP2 PUSH2 0x3EA JUMP JUMPDEST PUSH4 0x4E487B71 PUSH1 0xE0 SHL DUP10 MSTORE PUSH1 0x41 DUP6 MSTORE PUSH1 0x24 DUP10 REVERT JUMPDEST DUP5 MLOAD PUSH3 0x461BCD PUSH1 0xE5 SHL DUP2 MSTORE DUP1 DUP5 ADD DUP6 SWAP1 MSTORE PUSH1 0x16 PUSH1 0x24 DUP3 ADD MSTORE PUSH22 0x119D5B991A5B99C8195E18D959591CC8189D5919D95D PUSH1 0x52 SHL PUSH1 0x44 DUP3 ADD MSTORE PUSH1 0x64 SWAP1 REVERT JUMPDEST POP SWAP2 MLOAD PUSH3 0x461BCD PUSH1 0xE5 SHL DUP2 MSTORE SWAP2 DUP3 ADD MSTORE PUSH1 0xB PUSH1 0x24 DUP3 ADD MSTORE PUSH11 0x16995C9BC8185B5BDD5B9D PUSH1 0xAA SHL PUSH1 0x44 DUP3 ADD MSTORE PUSH1 0x64 SWAP1 REVERT JUMPDEST POP SWAP2 MLOAD PUSH3 0x461BCD PUSH1 0xE5 SHL DUP2 MSTORE SWAP2 DUP3 ADD MSTORE PUSH1 0xA PUSH1 0x24 DUP3 ADD MSTORE PUSH10 0x27B7363C903830BCB2B9 PUSH1 0xB1 SHL PUSH1 0x44 DUP3 ADD MSTORE PUSH1 0x64 SWAP1 REVERT JUMPDEST DUP4 DUP1 REVERT JUMPDEST DUP3 DUP1 REVERT JUMPDEST POP POP CALLVALUE PUSH2 0x142 JUMPI DUP2 PUSH1 0x3 NOT CALLDATASIZE ADD SLT PUSH2 0x142 JUMPI PUSH1 0x20 SWAP1 MLOAD PUSH32 0x0 DUP2 MSTORE RETURN JUMPDEST POP POP CALLVALUE PUSH2 0x142 JUMPI DUP2 PUSH1 0x3 NOT CALLDATASIZE ADD SLT PUSH2 0x142 JUMPI PUSH1 0x20 SWAP2 SLOAD SWAP1 MLOAD SWAP1 DUP2 MSTORE RETURN JUMPDEST POP POP CALLVALUE PUSH2 0x142 JUMPI DUP2 PUSH1 0x3 NOT CALLDATASIZE ADD SLT PUSH2 0x142 JUMPI PUSH1 0x20 SWAP1 MLOAD PUSH2 0xFFFF PUSH32 0x0 AND DUP2 MSTORE RETURN JUMPDEST POP POP CALLVALUE PUSH2 0x142 JUMPI DUP2 PUSH1 0x3 NOT CALLDATASIZE ADD SLT PUSH2 0x142 JUMPI MLOAD PUSH32 0x0 PUSH1 0x1 PUSH1 0x1 PUSH1 0xA0 SHL SUB AND DUP2 MSTORE PUSH1 0x20 SWAP1 RETURN JUMPDEST POP POP CALLVALUE PUSH2 0x142 JUMPI DUP2 PUSH1 0x3 NOT CALLDATASIZE ADD SLT PUSH2 0x142 JUMPI PUSH1 0x20 SWAP1 PUSH1 0xFF PUSH1 0x3 SLOAD AND SWAP1 MLOAD SWAP1 ISZERO ISZERO DUP2 MSTORE RETURN JUMPDEST POP POP CALLVALUE PUSH2 0x142 JUMPI DUP2 PUSH1 0x3 NOT CALLDATASIZE ADD SLT PUSH2 0x142 JUMPI PUSH1 0x20 SWAP1 MLOAD PUSH32 0x0 DUP2 MSTORE RETURN JUMPDEST POP POP CALLVALUE PUSH2 0x142 JUMPI DUP2 PUSH1 0x3 NOT CALLDATASIZE ADD SLT PUSH2 0x142 JUMPI SWAP1 SLOAD PUSH2 0x120 SWAP2 PUSH1 0x1 PUSH1 0x1 PUSH1 0xA0 SHL SUB SWAP2 PUSH2 0x624 PUSH2 0x1025 JUMP JUMPDEST PUSH1 0x1 SLOAD SWAP2 PUSH1 0xFF PUSH1 0x3 SLOAD AND SWAP4 DUP1 MLOAD SWAP6 DUP1 PUSH32 0x0 AND DUP8 MSTORE DUP1 PUSH32 0x0 AND PUSH1 0x20 DUP9 ADD MSTORE PUSH32 0x0 AND SWAP1 DUP7 ADD MSTORE PUSH32 0x0 PUSH1 0x60 DUP7 ADD MSTORE PUSH1 0x80 DUP6 ADD MSTORE PUSH1 0xA0 DUP5 ADD MSTORE PUSH1 0xC0 DUP4 ADD MSTORE PUSH32 0x0 PUSH1 0xE0 DUP4 ADD MSTORE ISZERO ISZERO PUSH2 0x100 DUP3 ADD MSTORE RETURN JUMPDEST POP POP CALLVALUE PUSH2 0x142 JUMPI DUP2 PUSH1 0x3 NOT CALLDATASIZE ADD SLT PUSH2 0x142 JUMPI PUSH1 0x20 SWAP1 PUSH1 0x1 SLOAD SWAP1 MLOAD SWAP1 DUP2 MSTORE RETURN JUMPDEST SWAP1 POP CALLVALUE PUSH2 0x4BD JUMPI PUSH1 0x20 SWAP2 DUP3 PUSH1 0x3 NOT CALLDATASIZE ADD SLT PUSH2 0x4B9 JUMPI DUP2 CALLDATALOAD SWAP2 DUP3 ISZERO ISZERO SWAP4 DUP5 DUP5 SUB PUSH2 0xA23 JUMPI PUSH1 0x1 PUSH1 0x1 PUSH1 0xA0 SHL SUB SWAP2 CALLER PUSH32 0x0 DUP5 AND EQ DUP1 ISZERO SWAP2 SWAP1 DUP3 PUSH2 0x9F8 JUMPI JUMPDEST ISZERO PUSH2 0x9BD JUMPI PUSH2 0x797 PUSH1 0x1 PUSH1 0x7 SLOAD EQ PUSH2 0xF7A JUMP JUMPDEST PUSH1 0x2 PUSH1 0x7 SSTORE PUSH1 0x3 SLOAD SWAP2 PUSH1 0xFF DUP4 AND PUSH2 0x984 JUMPI DUP7 PUSH2 0x87E JUMPI JUMPDEST POP POP SWAP2 PUSH32 0x4CEF784E3325791B3352C93C13490CC8BFD5C5374CB1C35ABCDA8E479F1389D8 SWAP6 SWAP4 SWAP2 PUSH1 0x1 PUSH1 0x60 SWAP7 SWAP5 PUSH1 0xFF NOT AND OR PUSH1 0x3 SSTORE PUSH2 0x7EB PUSH2 0x1025 JUMP JUMPDEST DUP9 SWAP3 DUP10 SWAP6 DUP3 PUSH2 0x80C JUMPI JUMPDEST POP POP POP DUP3 MLOAD SWAP5 DUP6 MSTORE DUP5 ADD MSTORE DUP3 ADD MSTORE LOG1 PUSH1 0x1 PUSH1 0x7 SSTORE DUP1 RETURN JUMPDEST SWAP2 SWAP6 SWAP2 ISZERO PUSH2 0x827 JUMPI POP POP PUSH2 0x81F DUP5 PUSH2 0x1303 JUMP JUMPDEST CODESIZE DUP1 DUP1 PUSH2 0x7F5 JUMP JUMPDEST SWAP3 POP SWAP4 DUP1 PUSH2 0x879 SWAP2 SWAP4 PUSH32 0x0 SWAP1 PUSH32 0x0 AND PUSH2 0x1232 JUMP JUMPDEST PUSH2 0x81F JUMP JUMPDEST PUSH2 0x941 JUMPI PUSH1 0x2 SLOAD PUSH1 0x6 SLOAD SUB PUSH2 0x8FE JUMPI DUP8 SLOAD PUSH32 0x0 SUB PUSH2 0x8BB JUMPI DUP1 PUSH2 0x7AE JUMP JUMPDEST DUP5 MLOAD PUSH3 0x461BCD PUSH1 0xE5 SHL DUP2 MSTORE SWAP1 DUP2 ADD DUP4 SWAP1 MSTORE PUSH1 0x19 PUSH1 0x24 DUP3 ADD MSTORE PUSH32 0x4465616C206D7573742062652066756C6C792066756E64656400000000000000 PUSH1 0x44 DUP3 ADD MSTORE PUSH1 0x64 SWAP1 REVERT JUMPDEST DUP5 MLOAD PUSH3 0x461BCD PUSH1 0xE5 SHL DUP2 MSTORE SWAP1 DUP2 ADD DUP4 SWAP1 MSTORE PUSH1 0x1F PUSH1 0x24 DUP3 ADD MSTORE PUSH32 0x416C6C206D696C6573746F6E6573206D7573742062652072656C656173656400 PUSH1 0x44 DUP3 ADD MSTORE PUSH1 0x64 SWAP1 REVERT JUMPDEST DUP5 MLOAD PUSH3 0x461BCD PUSH1 0xE5 SHL DUP2 MSTORE SWAP1 DUP2 ADD DUP4 SWAP1 MSTORE PUSH1 0x1E PUSH1 0x24 DUP3 ADD MSTORE PUSH32 0x5375636365737366756C20636C6F7365206E6565647320617262697465720000 PUSH1 0x44 DUP3 ADD MSTORE PUSH1 0x64 SWAP1 REVERT JUMPDEST DUP6 MLOAD PUSH3 0x461BCD PUSH1 0xE5 SHL DUP2 MSTORE DUP1 DUP4 ADD DUP6 SWAP1 MSTORE PUSH1 0x13 PUSH1 0x24 DUP3 ADD MSTORE PUSH19 0x1119585B08185B1C9958591E4818DB1BDCD959 PUSH1 0x6A SHL PUSH1 0x44 DUP3 ADD MSTORE PUSH1 0x64 SWAP1 REVERT JUMPDEST DUP5 MLOAD PUSH3 0x461BCD PUSH1 0xE5 SHL DUP2 MSTORE SWAP1 DUP2 ADD DUP4 SWAP1 MSTORE PUSH1 0x15 PUSH1 0x24 DUP3 ADD MSTORE PUSH21 0x27B7363C9030B93134BA32B91037B9103830BCB2B9 PUSH1 0x59 SHL PUSH1 0x44 DUP3 ADD MSTORE PUSH1 0x64 SWAP1 REVERT JUMPDEST POP DUP4 PUSH32 0x0 AND CALLER EQ PUSH2 0x784 JUMP JUMPDEST DUP6 DUP1 REVERT JUMPDEST SWAP1 POP CALLVALUE PUSH2 0x4BD JUMPI PUSH1 0x20 SWAP1 DUP2 PUSH1 0x3 NOT CALLDATASIZE ADD SLT PUSH2 0x4B9 JUMPI DUP1 CALLDATALOAD SWAP3 PUSH1 0x1 PUSH1 0x1 PUSH1 0xA0 SHL SUB PUSH32 0x0 DUP2 AND CALLER SUB PUSH2 0xC8C JUMPI PUSH2 0xA7E PUSH1 0x1 PUSH1 0x7 SLOAD EQ PUSH2 0xF7A JUMP JUMPDEST PUSH1 0x2 PUSH1 0x7 SSTORE PUSH2 0xA92 PUSH1 0xFF PUSH1 0x3 SLOAD AND ISZERO PUSH2 0xFBB JUMP JUMPDEST PUSH2 0xA9F PUSH1 0x6 SLOAD DUP7 LT PUSH2 0xEB1 JUMP JUMPDEST PUSH2 0xAA8 DUP6 PUSH2 0xEF1 JUMP JUMPDEST POP PUSH1 0x2 DUP2 ADD SWAP4 DUP5 SLOAD PUSH1 0xFF DUP2 DUP7 SHR AND PUSH2 0xC49 JUMPI PUSH1 0x1 PUSH2 0xAC4 PUSH2 0x1025 JUMP JUMPDEST SWAP4 ADD SWAP3 DUP4 SLOAD GT PUSH2 0xC06 JUMPI PUSH9 0xFF0000000000000000 NOT AND PUSH9 0x10000000000000000 OR DUP6 SSTORE PUSH1 0x2 SLOAD PUSH1 0x1 DUP2 ADD SWAP2 SWAP1 DUP3 LT PUSH2 0xBF3 JUMPI POP SWAP2 PUSH32 0x5E85B5843CDD9B3B8D34F7241A238E9638486675925145AB71603FDBDB58C37C SWAP6 SWAP4 SWAP2 PUSH1 0x60 SWAP6 SWAP4 PUSH1 0x2 SSTORE PUSH2 0xB3A PUSH8 0xFFFFFFFFFFFFFFFF DUP3 SLOAD SWAP6 SLOAD AND DUP6 PUSH2 0x1146 JUMP JUMPDEST SWAP2 DUP5 DUP4 PUSH2 0xB63 JUMPI JUMPDEST POP POP PUSH2 0xB4D DUP5 PUSH2 0x1303 JUMP JUMPDEST SLOAD SWAP4 DUP3 MLOAD SWAP5 DUP6 MSTORE DUP5 ADD MSTORE DUP3 ADD MSTORE LOG2 PUSH1 0x1 PUSH1 0x7 SSTORE DUP1 RETURN JUMPDEST PUSH2 0xB70 SWAP2 SWAP6 POP DUP4 SWAP1 PUSH2 0x1018 JUMP JUMPDEST SWAP4 DUP9 PUSH32 0x657E1349D31FBDECD505DA5D020E3C437420A0C17A558701912DC90871E0FF5A DUP8 PUSH32 0x0 SWAP4 PUSH2 0xBE3 DUP8 DUP7 DUP4 PUSH32 0x0 AND PUSH2 0x1232 JUMP JUMPDEST DUP8 MLOAD SWAP5 DUP8 DUP7 MSTORE AND SWAP4 LOG3 CODESIZE DUP1 PUSH2 0xB42 JUMP JUMPDEST PUSH4 0x4E487B71 PUSH1 0xE0 SHL DUP10 MSTORE PUSH1 0x11 SWAP1 MSTORE PUSH1 0x24 DUP9 REVERT JUMPDEST DUP5 MLOAD PUSH3 0x461BCD PUSH1 0xE5 SHL DUP2 MSTORE DUP1 DUP4 ADD DUP9 SWAP1 MSTORE PUSH1 0x1A PUSH1 0x24 DUP3 ADD MSTORE PUSH32 0x496E73756666696369656E74207661756C742062616C616E6365000000000000 PUSH1 0x44 DUP3 ADD MSTORE PUSH1 0x64 SWAP1 REVERT JUMPDEST DUP5 MLOAD PUSH3 0x461BCD PUSH1 0xE5 SHL DUP2 MSTORE DUP1 DUP4 ADD DUP9 SWAP1 MSTORE PUSH1 0x1A PUSH1 0x24 DUP3 ADD MSTORE PUSH32 0x4D696C6573746F6E6520616C72656164792072656C6561736564000000000000 PUSH1 0x44 DUP3 ADD MSTORE PUSH1 0x64 SWAP1 REVERT JUMPDEST POP SWAP2 PUSH1 0x64 SWAP3 MLOAD SWAP2 PUSH3 0x461BCD PUSH1 0xE5 SHL DUP4 MSTORE DUP3 ADD MSTORE PUSH1 0xC PUSH1 0x24 DUP3 ADD MSTORE PUSH12 0x27B7363C9030B93134BA32B9 PUSH1 0xA1 SHL PUSH1 0x44 DUP3 ADD MSTORE REVERT JUMPDEST SWAP1 POP CALLVALUE PUSH2 0x4BD JUMPI PUSH1 0x20 SWAP2 DUP3 PUSH1 0x3 NOT CALLDATASIZE ADD SLT PUSH2 0x4B9 JUMPI PUSH2 0xCE9 DUP3 CALLDATALOAD PUSH2 0xCE4 PUSH1 0x6 SLOAD DUP3 LT PUSH2 0xEB1 JUMP JUMPDEST PUSH2 0xEF1 JUMP JUMPDEST POP SWAP2 PUSH1 0x1 SWAP4 PUSH1 0x1 DUP5 ADD SLOAD SWAP2 PUSH1 0x2 DUP6 ADD SLOAD SWAP5 DUP5 MLOAD SWAP7 DUP9 SWAP2 DUP1 SLOAD DUP1 PUSH1 0x1 SHR SWAP5 PUSH1 0x1 DUP3 AND SWAP1 DUP2 ISZERO PUSH2 0xE29 JUMPI JUMPDEST DUP8 DUP8 LT DUP3 EQ PUSH2 0xE16 JUMPI POP DUP6 DUP12 MSTORE DUP11 SWAP5 SWAP4 SWAP3 SWAP2 DUP8 SWAP1 DUP3 ISZERO PUSH2 0xDF4 JUMPI POP POP PUSH1 0x1 EQ PUSH2 0xDB8 JUMPI JUMPDEST POP POP PUSH2 0xD4C SWAP3 POP SWAP8 SWAP6 SWAP4 SWAP8 SWAP7 SWAP5 SWAP3 SWAP7 SUB DUP5 PUSH2 0xF42 JUMP JUMPDEST DUP1 MLOAD SWAP6 DUP7 SWAP5 PUSH1 0x80 DUP7 MSTORE DUP5 MLOAD SWAP5 DUP6 PUSH1 0x80 DUP9 ADD MSTORE DUP2 JUMPDEST DUP7 DUP2 LT PUSH2 0xDA1 JUMPI POP POP DUP6 DUP6 ADD PUSH1 0xA0 SWAP1 DUP2 ADD SWAP2 SWAP1 SWAP2 MSTORE SWAP6 DUP6 ADD MSTORE PUSH8 0xFFFFFFFFFFFFFFFF DUP3 AND DUP5 DUP3 ADD MSTORE SHR PUSH1 0xFF AND ISZERO ISZERO PUSH1 0x60 DUP4 ADD MSTORE PUSH1 0x1F ADD PUSH1 0x1F NOT AND DUP2 ADD SUB ADD SWAP1 RETURN JUMPDEST DUP1 DUP3 ADD DUP10 ADD MLOAD DUP11 DUP3 ADD PUSH1 0xA0 ADD MSTORE DUP10 SWAP8 POP DUP9 ADD PUSH2 0xD60 JUMP JUMPDEST DUP6 SWAP3 POP DUP11 MSTORE DUP2 DUP11 KECCAK256 SWAP1 DUP11 SWAP2 JUMPDEST DUP6 DUP4 LT PUSH2 0xDDC JUMPI POP POP PUSH2 0xD4C SWAP4 POP DUP3 ADD ADD CODESIZE DUP1 PUSH2 0xD36 JUMP JUMPDEST DUP1 SLOAD DUP4 DUP13 ADD DUP6 ADD MSTORE DUP11 SWAP5 POP DUP7 SWAP4 SWAP1 SWAP3 ADD SWAP2 DUP2 ADD PUSH2 0xDC4 JUMP JUMPDEST SWAP3 POP SWAP4 POP POP PUSH2 0xD4C SWAP5 SWAP2 POP PUSH1 0xFF NOT AND DUP3 DUP5 ADD MSTORE ISZERO ISZERO PUSH1 0x5 SHL DUP3 ADD ADD CODESIZE DUP1 PUSH2 0xD36 JUMP JUMPDEST PUSH4 0x4E487B71 PUSH1 0xE0 SHL DUP14 MSTORE PUSH1 0x22 SWAP1 MSTORE PUSH1 0x24 DUP13 REVERT JUMPDEST SWAP6 PUSH1 0x7F AND SWAP6 PUSH2 0xD12 JUMP JUMPDEST POP POP CALLVALUE PUSH2 0x142 JUMPI DUP2 PUSH1 0x3 NOT CALLDATASIZE ADD SLT PUSH2 0x142 JUMPI MLOAD PUSH32 0x0 PUSH1 0x1 PUSH1 0x1 PUSH1 0xA0 SHL SUB AND DUP2 MSTORE PUSH1 0x20 SWAP1 RETURN JUMPDEST POP POP CALLVALUE PUSH2 0x142 JUMPI DUP2 PUSH1 0x3 NOT CALLDATASIZE ADD SLT PUSH2 0x142 JUMPI PUSH1 0x20 SWAP1 PUSH1 0x6 SLOAD SWAP1 MLOAD SWAP1 DUP2 MSTORE RETURN JUMPDEST DUP5 SWAP2 CALLVALUE PUSH2 0x4BD JUMPI DUP3 PUSH1 0x3 NOT CALLDATASIZE ADD SLT PUSH2 0x4BD JUMPI PUSH1 0x20 SWAP3 POP SLOAD DUP2 MSTORE RETURN JUMPDEST ISZERO PUSH2 0xEB8 JUMPI JUMP JUMPDEST PUSH1 0x40 MLOAD PUSH3 0x461BCD PUSH1 0xE5 SHL DUP2 MSTORE PUSH1 0x20 PUSH1 0x4 DUP3 ADD MSTORE PUSH1 0x11 PUSH1 0x24 DUP3 ADD MSTORE PUSH17 0x496E76616C6964206D696C6573746F6E65 PUSH1 0x78 SHL PUSH1 0x44 DUP3 ADD MSTORE PUSH1 0x64 SWAP1 REVERT JUMPDEST PUSH1 0x6 SLOAD DUP2 LT ISZERO PUSH2 0xF2C JUMPI PUSH1 0x3 SWAP1 PUSH1 0x6 PUSH1 0x0 MSTORE MUL PUSH32 0xF652222313E28459528D920B65115C16C04F3EFC82AAEDC97BE59F3F377C0D3F ADD SWAP1 PUSH1 0x0 SWAP1 JUMP JUMPDEST PUSH4 0x4E487B71 PUSH1 0xE0 SHL PUSH1 0x0 MSTORE PUSH1 0x32 PUSH1 0x4 MSTORE PUSH1 0x24 PUSH1 0x0 REVERT JUMPDEST SWAP1 PUSH1 0x1F DUP1 NOT SWAP2 ADD AND DUP2 ADD SWAP1 DUP2 LT PUSH8 0xFFFFFFFFFFFFFFFF DUP3 GT OR PUSH2 0xF64 JUMPI PUSH1 0x40 MSTORE JUMP JUMPDEST PUSH4 0x4E487B71 PUSH1 0xE0 SHL PUSH1 0x0 MSTORE PUSH1 0x41 PUSH1 0x4 MSTORE PUSH1 0x24 PUSH1 0x0 REVERT JUMPDEST ISZERO PUSH2 0xF81 JUMPI JUMP JUMPDEST PUSH1 0x40 MLOAD PUSH3 0x461BCD PUSH1 0xE5 SHL DUP2 MSTORE PUSH1 0x20 PUSH1 0x4 DUP3 ADD MSTORE PUSH1 0x12 PUSH1 0x24 DUP3 ADD MSTORE PUSH18 0x1499595B9D1C985B98DE48189B1BD8DAD959 PUSH1 0x72 SHL PUSH1 0x44 DUP3 ADD MSTORE PUSH1 0x64 SWAP1 REVERT JUMPDEST ISZERO PUSH2 0xFC2 JUMPI JUMP JUMPDEST PUSH1 0x40 MLOAD PUSH3 0x461BCD PUSH1 0xE5 SHL DUP2 MSTORE PUSH1 0x20 PUSH1 0x4 DUP3 ADD MSTORE PUSH1 0xB PUSH1 0x24 DUP3 ADD MSTORE PUSH11 0x1119585B0818DB1BDCD959 PUSH1 0xAA SHL PUSH1 0x44 DUP3 ADD MSTORE PUSH1 0x64 SWAP1 REVERT JUMPDEST SWAP2 SWAP1 DUP3 ADD DUP1 SWAP3 GT PUSH2 0x1002 JUMPI JUMP JUMPDEST PUSH4 0x4E487B71 PUSH1 0xE0 SHL PUSH1 0x0 MSTORE PUSH1 0x11 PUSH1 0x4 MSTORE PUSH1 0x24 PUSH1 0x0 REVERT JUMPDEST SWAP2 SWAP1 DUP3 SUB SWAP2 DUP3 GT PUSH2 0x1002 JUMPI JUMP JUMPDEST PUSH1 0x40 MLOAD PUSH4 0x70A08231 PUSH1 0xE0 SHL DUP2 MSTORE ADDRESS PUSH1 0x4 DUP3 ADD MSTORE PUSH1 0x20 DUP2 PUSH1 0x24 DUP2 PUSH32 0x0 PUSH1 0x1 PUSH1 0x1 PUSH1 0xA0 SHL SUB AND GAS STATICCALL SWAP1 DUP2 ISZERO PUSH2 0x10B0 JUMPI PUSH1 0x0 SWAP2 PUSH2 0x107C JUMPI POP SWAP1 JUMP JUMPDEST SWAP1 POP PUSH1 0x20 DUP2 RETURNDATASIZE PUSH1 0x20 GT PUSH2 0x10A8 JUMPI JUMPDEST DUP2 PUSH2 0x1097 PUSH1 0x20 SWAP4 DUP4 PUSH2 0xF42 JUMP JUMPDEST DUP2 ADD SUB SLT PUSH2 0x10A3 JUMPI MLOAD SWAP1 JUMP JUMPDEST PUSH1 0x0 DUP1 REVERT JUMPDEST RETURNDATASIZE SWAP2 POP PUSH2 0x108A JUMP JUMPDEST PUSH1 0x40 MLOAD RETURNDATASIZE PUSH1 0x0 DUP3 RETURNDATACOPY RETURNDATASIZE SWAP1 REVERT JUMPDEST PUSH1 0x4 SLOAD DUP2 LT ISZERO PUSH2 0xF2C JUMPI PUSH1 0x4 PUSH1 0x0 MSTORE PUSH32 0x8A35ACFBC15FF81A39AE7D344FD709F28E8600B4AA8C65C6B64BFE7FE36BD19B ADD SWAP1 PUSH1 0x0 SWAP1 JUMP JUMPDEST SWAP1 PUSH1 0x5 SLOAD DUP3 LT ISZERO PUSH2 0xF2C JUMPI PUSH1 0x5 PUSH1 0x0 MSTORE PUSH1 0x1E DUP3 PUSH1 0x4 SHR PUSH32 0x36B6384B5ECA791C62761152D0C79BB0604C104A5FB6F4EB0703F3154BB3DB0 ADD SWAP3 PUSH1 0x1 SHL AND SWAP1 JUMP JUMPDEST DUP2 DUP2 MUL SWAP3 SWAP2 DUP2 ISZERO SWAP2 DUP5 DIV EQ OR ISZERO PUSH2 0x1002 JUMPI JUMP JUMPDEST SWAP1 PUSH8 0xFFFFFFFFFFFFFFFF AND DUP1 ISZERO SWAP1 DUP2 ISZERO PUSH2 0x11CF JUMPI JUMPDEST POP DUP1 ISZERO PUSH2 0x11A3 JUMPI JUMPDEST PUSH2 0x119D JUMPI PUSH2 0x1199 PUSH2 0x2710 SWAP2 PUSH2 0xFFFF PUSH32 0x0 AND SWAP1 PUSH2 0x1133 JUMP JUMPDEST DIV SWAP1 JUMP JUMPDEST POP PUSH1 0x0 SWAP1 JUMP JUMPDEST POP PUSH2 0xFFFF PUSH32 0x0 AND ISZERO PUSH2 0x1163 JUMP JUMPDEST SWAP1 POP TIMESTAMP GT ISZERO CODESIZE PUSH2 0x115B JUMP JUMPDEST RETURNDATASIZE ISZERO PUSH2 0x1215 JUMPI RETURNDATASIZE SWAP1 PUSH8 0xFFFFFFFFFFFFFFFF DUP3 GT PUSH2 0xF64 JUMPI PUSH1 0x40 MLOAD SWAP2 PUSH2 0x1209 PUSH1 0x1F DUP3 ADD PUSH1 0x1F NOT AND PUSH1 0x20 ADD DUP5 PUSH2 0xF42 JUMP JUMPDEST DUP3 MSTORE RETURNDATASIZE PUSH1 0x0 PUSH1 0x20 DUP5 ADD RETURNDATACOPY JUMP JUMPDEST PUSH1 0x60 SWAP1 JUMP JUMPDEST SWAP1 DUP2 PUSH1 0x20 SWAP2 SUB SLT PUSH2 0x10A3 JUMPI MLOAD DUP1 ISZERO ISZERO DUP2 SUB PUSH2 0x10A3 JUMPI SWAP1 JUMP JUMPDEST PUSH1 0x40 MLOAD PUSH4 0xA9059CBB PUSH1 0xE0 SHL PUSH1 0x20 DUP3 ADD SWAP1 DUP2 MSTORE PUSH1 0x1 PUSH1 0x1 PUSH1 0xA0 SHL SUB SWAP1 SWAP4 AND PUSH1 0x24 DUP3 ADD MSTORE PUSH1 0x44 DUP1 DUP3 ADD SWAP5 SWAP1 SWAP5 MSTORE SWAP3 DUP4 MSTORE PUSH1 0x80 DUP4 ADD SWAP3 SWAP2 PUSH8 0xFFFFFFFFFFFFFFFF DUP5 GT DUP4 DUP6 LT OR PUSH2 0xF64 JUMPI PUSH1 0x0 DUP1 SWAP5 SWAP4 DUP2 SWAP5 PUSH1 0x40 MSTORE MLOAD SWAP3 GAS CALL PUSH2 0x128F PUSH2 0x11DA JUMP JUMPDEST DUP2 PUSH2 0x12D4 JUMPI JUMPDEST POP ISZERO PUSH2 0x129D JUMPI JUMP JUMPDEST PUSH1 0x40 MLOAD PUSH3 0x461BCD PUSH1 0xE5 SHL DUP2 MSTORE PUSH1 0x20 PUSH1 0x4 DUP3 ADD MSTORE PUSH1 0xF PUSH1 0x24 DUP3 ADD MSTORE PUSH15 0x151C985B9CD9995C8819985A5B1959 PUSH1 0x8A SHL PUSH1 0x44 DUP3 ADD MSTORE PUSH1 0x64 SWAP1 REVERT JUMPDEST DUP1 MLOAD DUP1 ISZERO SWAP3 POP DUP3 ISZERO PUSH2 0x12E9 JUMPI JUMPDEST POP POP CODESIZE PUSH2 0x1295 JUMP JUMPDEST PUSH2 0x12FC SWAP3 POP PUSH1 0x20 DUP1 SWAP2 DUP4 ADD ADD SWAP2 ADD PUSH2 0x121A JUMP JUMPDEST CODESIZE DUP1 PUSH2 0x12E1 JUMP JUMPDEST DUP1 ISZERO PUSH2 0x13DA JUMPI DUP1 PUSH1 0x0 JUMPDEST PUSH1 0x4 DUP1 SLOAD SWAP1 DUP2 DUP4 LT ISZERO PUSH2 0x13D3 JUMPI PUSH1 0x0 NOT DUP3 ADD SWAP2 DUP3 GT PUSH2 0x13BE JUMPI POP PUSH1 0x1 SWAP2 SWAP1 DUP2 SUB PUSH2 0x1393 JUMPI PUSH2 0x133B DUP4 DUP1 PUSH2 0x1018 JUMP JUMPDEST SWAP3 DUP1 PUSH2 0x1349 JUMPI JUMPDEST POP ADD PUSH2 0x130D JUMP JUMPDEST PUSH2 0x138D SWAP1 DUP4 DUP1 PUSH1 0xA0 SHL SUB DUP1 PUSH2 0x135D DUP6 PUSH2 0x10BC JUMP JUMPDEST SWAP1 SLOAD SWAP1 PUSH1 0x3 SHL SHR AND SWAP1 PUSH32 0x0 AND PUSH2 0x1232 JUMP JUMPDEST CODESIZE PUSH2 0x1342 JUMP JUMPDEST PUSH2 0x133B PUSH2 0x2710 PUSH2 0x13B6 PUSH2 0xFFFF PUSH2 0x13A8 DUP6 PUSH2 0x10F3 JUMP JUMPDEST SWAP1 SLOAD SWAP1 PUSH1 0x3 SHL SHR AND DUP8 PUSH2 0x1133 JUMP JUMPDEST DIV DUP1 SWAP5 PUSH2 0x1018 JUMP JUMPDEST PUSH1 0x11 SWAP1 PUSH4 0x4E487B71 PUSH1 0xE0 SHL PUSH1 0x0 MSTORE MSTORE PUSH1 0x24 PUSH1 0x0 REVERT JUMPDEST POP POP POP POP POP JUMP JUMPDEST POP JUMP INVALID LOG2 PUSH5 0x6970667358 0x22 SLT KECCAK256 0xB6 0xB2 CREATE 0xAC PUSH5 0xAA4CCC1A0B DUP10 PUSH8 0x96BD6E30FEDAB27A DUP16 0xEF PUSH18 0x24AE00780282BABEBB64736F6C6343000818 STOP CALLER "},"methodIdentifiers":{"allMilestonesReleased()":"e595a233","arbiter()":"fe25e00a","closeDeal(bool)":"3750d53a","closed()":"597e1fb5","currentBalance()":"ce845d1d","fund(uint256)":"ca1d209d","getMilestone(uint256)":"2442e1cb","getPayee(uint256)":"d13136fd","getSummary()":"4051ddac","latePenaltyBps()":"7ee5ee36","milestoneCount()":"0681ca55","payeeCount()":"00dbe109","payer()":"123119cd","releaseMilestone(uint256)":"317debf5","releasedMilestoneCount()":"d8070155","reserveAmount()":"4b09b72a","settlementToken()":"7b9e618d","totalBudget()":"c78da39a","totalFunded()":"ad044f49","totalMilestoneAmount()":"3873032d"}}}}}