{
  "_format": "hh-sol-artifact-1",
  "contractName": "DealVaultFactory",
  "sourceName": "contracts/DealVaultFactory.sol",
  "abi": [
    {
      "anonymous": false,
      "inputs": [
        {
          "indexed": true,
          "internalType": "address",
          "name": "vault",
          "type": "address"
        },
        {
          "indexed": true,
          "internalType": "address",
          "name": "payer",
          "type": "address"
        },
        {
          "indexed": true,
          "internalType": "address",
          "name": "arbiter",
          "type": "address"
        },
        {
          "indexed": false,
          "internalType": "address",
          "name": "settlementToken",
          "type": "address"
        }
      ],
      "name": "DealCreated",
      "type": "event"
    },
    {
      "inputs": [
        {
          "internalType": "address",
          "name": "settlementToken_",
          "type": "address"
        },
        {
          "internalType": "address",
          "name": "payer_",
          "type": "address"
        },
        {
          "internalType": "address",
          "name": "arbiter_",
          "type": "address"
        },
        {
          "internalType": "address[]",
          "name": "payees_",
          "type": "address[]"
        },
        {
          "internalType": "uint16[]",
          "name": "payeeBps_",
          "type": "uint16[]"
        },
        {
          "internalType": "string[]",
          "name": "milestoneNames_",
          "type": "string[]"
        },
        {
          "internalType": "uint256[]",
          "name": "milestoneAmounts_",
          "type": "uint256[]"
        },
        {
          "internalType": "uint64[]",
          "name": "milestoneDueAts_",
          "type": "uint64[]"
        },
        {
          "internalType": "uint256",
          "name": "reserveAmount_",
          "type": "uint256"
        },
        {
          "internalType": "uint16",
          "name": "latePenaltyBps_",
          "type": "uint16"
        }
      ],
      "name": "createDeal",
      "outputs": [
        {
          "internalType": "address",
          "name": "vault",
          "type": "address"
        }
      ],
      "stateMutability": "nonpayable",
      "type": "function"
    }
  ],
  "bytecode": "0x608080604052346100165761266a908161001c8239f35b600080fdfe608060405260043610156200001357600080fd5b60003560e01c634bd42e55146200002957600080fd5b34620003305761014036600319011262000330576004356001600160a01b03811681036200033057602435906001600160a01b03821682036200033057604435916001600160a01b0383168303620003305760643567ffffffffffffffff811162000330576200009e90369060040162000434565b60843567ffffffffffffffff81116200033057620000c190369060040162000434565b9060a43567ffffffffffffffff81116200033057620000e590369060040162000434565b9060c43567ffffffffffffffff811162000330576200010990369060040162000434565b93909267ffffffffffffffff60e4351162000330576200012f3660e43560040162000434565b969098610124359861ffff8a168a03620003305760806121cc6080011067ffffffffffffffff6121cc60800111176200041e579493946121cc620004696080396001600160a01b038d81166121cc60808101919091528d821660a0820152908f1660c082015261014060e08201526101c081018290526101e00191906000905b808210620003e0575050506020906121cc608001810360806121cc60800101528281520193906000905b808210620003b1575050506121cc608001830360a06121cc6080010152808352602083019060208160051b85010193836000915b8383106200033557505050506121cc808403607f19016101409091015250508281526001600160fb1b038311620003305760409260051b8092602083013701826020820160206121cc60800184030160e06121cc6080010152520192906000905b808210620003025750505061ffff90610104356101006121cc6080010152166101206121cc60800101526080900360806000f0918215620002f6576040516001600160a01b039182168152602094938216938216929091169083907f9e3ad268d37e8f67f13b2f7520dd416a4803c19e866fc335b606f6b401af6b4a908690a4604051908152f35b6040513d6000823e3d90fd5b90919384359067ffffffffffffffff821680920362000330576020816001938293520195019201906200026e565b600080fd5b909192939495601f19828203018652601e19833603018735121562000330578287350167ffffffffffffffff8135116200033057803536036020820113620003305760208060019383829435825280358382018484013760009035828101840191909152601f01601f191601019801960194930191906200020d565b9091939484359061ffff8216820362000330576020809161ffff600194168152019501920190949394620001d9565b95969591929091908335906001600160a01b038216820362000330576001600160a01b039091168152959695602090810193019160010190620001af565b634e487b7160e01b600052604160045260246000fd5b9181601f84011215620003305782359167ffffffffffffffff831162000330576020808501948460051b010111620003305756fe6101406040523462000c0a57620021cc80380390816200001f8162000d1c565b91823961014081838101031262000c0a576200003b8162000d42565b916200004a6020830162000d42565b91620000596040820162000d42565b60608201519092906001600160401b03811162000c0a57820191818101601f8401121562000c0a5782519262000099620000938562000d57565b62000d1c565b9360208086838152019160051b83010191848401831162000c0a57602001905b82821062000d015750505060808101516001600160401b03811162000c0a57810195828201601f8801121562000c0a57865196620000fb620000938962000d57565b976020808a838152019160051b83010191858501831162000c0a57602001905b82821062000ce65750505060a0820151946001600160401b03861162000c0a57838301601f87850101121562000c0a5785830151956200015f620000938862000d57565b966020888281520186860160208360051b85890101011162000c0a57602083870101905b60208360051b8589010101821062000c24575050505060c0830151966001600160401b03881162000c0a57848401601f89860101121562000c0a5787840151620001d1620000938262000d57565b9860208a838152019087870160208460051b838a0101011162000c0a5790602082880101915b60208460051b828a010101831062000c0f575050505060e08401516001600160401b03811162000c0a57840194808501601f8701121562000c0a57855162000243620000938262000d57565b966020888381520192870160208360051b8301011162000c0a579160208301925b60208360051b820101841062000be257505050506200028d610120610100860151950162000d6f565b6001600755926001600160a01b0381161562000bad576001600160a01b0382161562000b78576001600160a01b0383161562000b41578651801515908162000b34575b501562000aef5786518a510362000aaa578751801515908162000a9d575b8162000a91575b508062000a85575b1562000a4057841562000a085761271061ffff851611620009c3576001600160a01b031660805260a05260c05261010082905261012052600093845b845186101562000506576001600160a01b0362000357878762000d7f565b511615620004d15761ffff6200036e878a62000d7f565b5116156200049b576001600160a01b036200038a878762000d7f565b511660045468010000000000000000811015620004855760018101806004558110156200046f5760046000527f8a35acfbc15ff81a39ae7d344fd709f28e8600b4aa8c65c6b64bfe7fe36bd19b0180546001600160a01b031916909117905561ffff620003f8878a62000d7f565b51166005549168010000000000000000831015620004855760018301806005558310156200046f576001926200046692600560005260206000208260041c019161ffff60f084549260041b1692831b921b191617905561ffff6200045d898c62000d7f565b51169062000d94565b95019462000339565b634e487b7160e01b600052603260045260246000fd5b634e487b7160e01b600052604160045260246000fd5b60405162461bcd60e51b815260206004820152600e60248201526d5a65726f2070617965652062707360901b6044820152606490fd5b60405162461bcd60e51b815260206004820152600d60248201526c496e76616c696420706179656560981b6044820152606490fd5b6127108791036200097e57600091825b81518410156200085d576200052c848362000d7f565b515115620008185762000540848462000d7f565b5115620007d35762000553848362000d7f565b5162000560858562000d7f565b516001600160401b0362000575878a62000d7f565b516040519391169190608084016001600160401b0381118582101762000485576040528352602083015260408201526000606082015260065468010000000000000000811015620004855760018101806006558110156200046f576006600052815180517ff652222313e28459528d920b65115c16c04f3efc82aaedc97be59f3f377c0d3f92916001600160401b038211620004855760038302840154600181811c91168015620007c8575b6020821014620007b257601f811162000764575b50602090601f8311600114620006e057620006cb9593836002946001999794600394600092620006d4575b505060001982851b1c191690891b178183028401555b6020850151888383028501015502010190848060401b0360408201511668ff000000000000000060608454930151151560401b1691868060481b03191617179055620006c3868662000d7f565b519062000d94565b93019262000516565b015190508f8062000660565b9060038402850160005260206000209160005b601f19851681106200074b57509360018481999794600394620006cb9a98600298601f1981161062000732575b505050811b0182820284015562000676565b015160001983871b60f8161c191690558f808062000720565b91926020600181928685015181550194019201620006f3565b6003840285016000526020600020601f840160051c810160208510620007aa575b601f830160051c820181106200079d57505062000635565b6000815560010162000785565b508062000785565b634e487b7160e01b600052602260045260246000fd5b90607f169062000621565b60405162461bcd60e51b815260206004820152601560248201527f5a65726f206d696c6573746f6e6520616d6f756e7400000000000000000000006044820152606490fd5b60405162461bcd60e51b815260206004820152601460248201527f456d707479206d696c6573746f6e65206e616d650000000000000000000000006044820152606490fd5b846200086d918060015562000d94565b8060e052156200094b57604051611413908162000db982396080518181816103340152818161056d015281816106350152818161085401528181610bbe015281816110400152611368015260a05181818161025e0152818161065a01528181610832015281816109fc01528181610b960152610e48015260c05181818161011301528181610681015281816107580152610a49015260e0518181816102bb015281816104d9015281816106a701526108910152610100518181816105d801526106dc0152610120518181816105340152818161117301526111a90152f35b60405162461bcd60e51b815260206004820152600b60248201526a16995c9bc8189d5919d95d60aa1b6044820152606490fd5b60405162461bcd60e51b815260206004820152601b60248201527f506179656520627073206d7573742073756d20746f20313030303000000000006044820152606490fd5b60405162461bcd60e51b815260206004820152601360248201527f496e76616c69642070656e616c747920627073000000000000000000000000006044820152606490fd5b60405162461bcd60e51b815260206004820152601060248201526f14995cd95c9d99481c995c5d5a5c995960821b6044820152606490fd5b60405162461bcd60e51b815260206004820152601960248201527f4d696c6573746f6e65206c656e677468206d69736d61746368000000000000006044820152606490fd5b508851865114620002fd565b905089511438620002f5565b60038111159150620002ee565b60405162461bcd60e51b815260206004820152601560248201527f5061796565206c656e677468206d69736d6174636800000000000000000000006044820152606490fd5b60405162461bcd60e51b815260206004820152601360248201527f496e76616c696420706179656520636f756e74000000000000000000000000006044820152606490fd5b60039150111538620002d0565b60405162461bcd60e51b815260206004820152600f60248201526e24b73b30b634b21030b93134ba32b960891b6044820152606490fd5b60405162461bcd60e51b815260206004820152600d60248201526c24b73b30b634b2103830bcb2b960991b6044820152606490fd5b60405162461bcd60e51b815260206004820152600d60248201526c24b73b30b634b2103a37b5b2b760991b6044820152606490fd5b8351916001600160401b038316830362000c0a57602081819482935201940193915062000264565b600080fd5b602080809385518152019301929150620001f7565b81516001600160401b03811162000c0a57888801603f82878b010101121562000c0a578785018101602001516001600160401b03811162000cd157899189604083838a62000c7c601f8401601f191660200162000d1c565b97838952850194010101011162000c0a5760005b878b84831062000cb6575050600060209385018401525050908252918201910162000183565b82846020949360409301010101518282870101520162000c90565b60246000634e487b7160e01b81526041600452fd5b6020809162000cf58462000d6f565b8152019101906200011b565b6020809162000d108462000d42565b815201910190620000b9565b6040519190601f01601f191682016001600160401b038111838210176200048557604052565b51906001600160a01b038216820362000c0a57565b6001600160401b038111620004855760051b60200190565b519061ffff8216820362000c0a57565b80518210156200046f5760209160051b010190565b9190820180921162000da257565b634e487b7160e01b600052601160045260246000fdfe608060408181526004918236101561001657600080fd5b600092833560e01c918262dbe10914610e96575081630681ca5514610e77578163123119cd14610e335781632442e1cb14610cbd578163317debf514610a275781633750d53a146107295781633873032d1461070a5781634051ddac146105fb5781634b09b72a146105c0578163597e1fb51461059c5781637b9e618d146105585781637ee5ee3614610519578163ad044f49146104fc578163c78da39a146104c1578163ca1d209d1461023c578163ce845d1d14610218578163d13136fd1461018657508063d807015514610168578063e595a233146101465763fe25e00a1461010057600080fd5b34610142578160031936011261014257517f00000000000000000000000000000000000000000000000000000000000000006001600160a01b03168152602090f35b5080fd5b5034610142578160031936011261014257602090600254600654149051908152f35b50346101425781600319360112610142576020906002549051908152f35b90508234610215576020366003190112610215575080359080548210156101e257506101c061ffff6101b7836110bc565b929054936110f3565b90549060031b1c169083519260018060a01b039160031b1c1682526020820152f35b606490602084519162461bcd60e51b8352820152600d60248201526c496e76616c696420706179656560981b6044820152fd5b80fd5b505034610142578160031936011261014257602090610235611025565b9051908152f35b919050346104bd576020806003193601126104b9578235926001600160a01b037f00000000000000000000000000000000000000000000000000000000000000008116330361048a57610293600160075414610f7a565b60026007556102a760ff6003541615610fbb565b841561045a5785546102b98682610ff5565b7f00000000000000000000000000000000000000000000000000000000000000001061041e57856102e991610ff5565b86558351838101906323b872dd60e01b82523360248201523060448201528660648201526064815260a0810181811067ffffffffffffffff82111761040b57865251879283929083907f0000000000000000000000000000000000000000000000000000000000000000165af161035e6111da565b816103db575b50156103a45750907fe175d82153fafaa6c2ddb5c107ed1d5e9844a210f223787490b4a194f4e4e3d09184549082519485528401523392a2600160075580f35b915162461bcd60e51b8152918201526013602482015272151c985b9cd9995c919c9bdb4819985a5b1959606a1b6044820152606490fd5b805180159250849083156103f3575b50505038610364565b610403935082018101910161121a565b3883816103ea565b634e487b7160e01b895260418552602489fd5b845162461bcd60e51b81528084018590526016602482015275119d5b991a5b99c8195e18d959591cc8189d5919d95d60521b6044820152606490fd5b50915162461bcd60e51b815291820152600b60248201526a16995c9bc8185b5bdd5b9d60aa1b6044820152606490fd5b50915162461bcd60e51b815291820152600a60248201526927b7363c903830bcb2b960b11b6044820152606490fd5b8380fd5b8280fd5b505034610142578160031936011261014257602090517f00000000000000000000000000000000000000000000000000000000000000008152f35b505034610142578160031936011261014257602091549051908152f35b5050346101425781600319360112610142576020905161ffff7f0000000000000000000000000000000000000000000000000000000000000000168152f35b505034610142578160031936011261014257517f00000000000000000000000000000000000000000000000000000000000000006001600160a01b03168152602090f35b50503461014257816003193601126101425760209060ff6003541690519015158152f35b505034610142578160031936011261014257602090517f00000000000000000000000000000000000000000000000000000000000000008152f35b5050346101425781600319360112610142579054610120916001600160a01b0391610624611025565b6001549160ff6003541693805195807f0000000000000000000000000000000000000000000000000000000000000000168752807f00000000000000000000000000000000000000000000000000000000000000001660208801527f000000000000000000000000000000000000000000000000000000000000000016908601527f00000000000000000000000000000000000000000000000000000000000000006060860152608085015260a084015260c08301527f000000000000000000000000000000000000000000000000000000000000000060e08301521515610100820152f35b5050346101425781600319360112610142576020906001549051908152f35b9050346104bd57602091826003193601126104b95781359182151593848403610a23576001600160a01b0391337f000000000000000000000000000000000000000000000000000000000000000084161480159190826109f8575b156109bd57610797600160075414610f7a565b60026007556003549160ff8316610984578661087e575b5050917f4cef784e3325791b3352c93c13490cc8bfd5c5374cb1c35abcda8e479f1389d895939160016060969460ff1916176003556107eb611025565b889289958261080c575b5050508251948552840152820152a1600160075580f35b9195911561082757505061081f84611303565b3880806107f5565b9250938061087991937f0000000000000000000000000000000000000000000000000000000000000000907f000000000000000000000000000000000000000000000000000000000000000016611232565b61081f565b61094157600254600654036108fe5787547f0000000000000000000000000000000000000000000000000000000000000000036108bb57806107ae565b845162461bcd60e51b8152908101839052601960248201527f4465616c206d7573742062652066756c6c792066756e646564000000000000006044820152606490fd5b845162461bcd60e51b8152908101839052601f60248201527f416c6c206d696c6573746f6e6573206d7573742062652072656c6561736564006044820152606490fd5b845162461bcd60e51b8152908101839052601e60248201527f5375636365737366756c20636c6f7365206e65656473206172626974657200006044820152606490fd5b855162461bcd60e51b815280830185905260136024820152721119585b08185b1c9958591e4818db1bdcd959606a1b6044820152606490fd5b845162461bcd60e51b8152908101839052601560248201527427b7363c9030b93134ba32b91037b9103830bcb2b960591b6044820152606490fd5b50837f0000000000000000000000000000000000000000000000000000000000000000163314610784565b8580fd5b9050346104bd57602090816003193601126104b9578035926001600160a01b037f000000000000000000000000000000000000000000000000000000000000000081163303610c8c57610a7e600160075414610f7a565b6002600755610a9260ff6003541615610fbb565b610a9f6006548610610eb1565b610aa885610ef1565b506002810193845460ff81861c16610c49576001610ac4611025565b930192835411610c065768ff00000000000000001916680100000000000000001785556002546001810191908210610bf35750917f5e85b5843cdd9b3b8d34f7241a238e9638486675925145ab71603fdbdb58c37c95939160609593600255610b3a67ffffffffffffffff825495541685611146565b918483610b63575b5050610b4d84611303565b54938251948552840152820152a2600160075580f35b610b709195508390611018565b93887f657e1349d31fbdecd505da5d020e3c437420a0c17a558701912dc90871e0ff5a877f000000000000000000000000000000000000000000000000000000000000000093610be38786837f000000000000000000000000000000000000000000000000000000000000000016611232565b8751948786521693a33880610b42565b634e487b7160e01b895260119052602488fd5b845162461bcd60e51b8152808301889052601a60248201527f496e73756666696369656e74207661756c742062616c616e63650000000000006044820152606490fd5b845162461bcd60e51b8152808301889052601a60248201527f4d696c6573746f6e6520616c72656164792072656c65617365640000000000006044820152606490fd5b5091606492519162461bcd60e51b8352820152600c60248201526b27b7363c9030b93134ba32b960a11b6044820152fd5b9050346104bd57602091826003193601126104b957610ce98235610ce46006548210610eb1565b610ef1565b5091600193600184015491600285015494845196889180548060011c9460018216908115610e29575b8787108214610e165750858b528a9493929187908215610df4575050600114610db8575b5050610d4c925097959397969492960384610f42565b805195869460808652845194856080880152815b868110610da157505085850160a0908101919091529585015267ffffffffffffffff8216848201521c60ff1615156060830152601f01601f19168101030190f35b8082018901518a820160a001528997508801610d60565b8592508a52818a20908a915b858310610ddc575050610d4c93508201013880610d36565b8054838c018501528a94508693909201918101610dc4565b9250935050610d4c94915060ff191682840152151560051b8201013880610d36565b634e487b7160e01b8d526022905260248cfd5b95607f1695610d12565b505034610142578160031936011261014257517f00000000000000000000000000000000000000000000000000000000000000006001600160a01b03168152602090f35b5050346101425781600319360112610142576020906006549051908152f35b8491346104bd57826003193601126104bd5760209250548152f35b15610eb857565b60405162461bcd60e51b8152602060048201526011602482015270496e76616c6964206d696c6573746f6e6560781b6044820152606490fd5b600654811015610f2c576003906006600052027ff652222313e28459528d920b65115c16c04f3efc82aaedc97be59f3f377c0d3f0190600090565b634e487b7160e01b600052603260045260246000fd5b90601f8019910116810190811067ffffffffffffffff821117610f6457604052565b634e487b7160e01b600052604160045260246000fd5b15610f8157565b60405162461bcd60e51b81526020600482015260126024820152711499595b9d1c985b98de48189b1bd8dad95960721b6044820152606490fd5b15610fc257565b60405162461bcd60e51b815260206004820152600b60248201526a1119585b0818db1bdcd95960aa1b6044820152606490fd5b9190820180921161100257565b634e487b7160e01b600052601160045260246000fd5b9190820391821161100257565b6040516370a0823160e01b81523060048201526020816024817f00000000000000000000000000000000000000000000000000000000000000006001600160a01b03165afa9081156110b05760009161107c575090565b90506020813d6020116110a8575b8161109760209383610f42565b810103126110a3575190565b600080fd5b3d915061108a565b6040513d6000823e3d90fd5b600454811015610f2c5760046000527f8a35acfbc15ff81a39ae7d344fd709f28e8600b4aa8c65c6b64bfe7fe36bd19b0190600090565b90600554821015610f2c576005600052601e8260041c7f036b6384b5eca791c62761152d0c79bb0604c104a5fb6f4eb0703f3154bb3db0019260011b1690565b8181029291811591840414171561100257565b9067ffffffffffffffff1680159081156111cf575b5080156111a3575b61119d576111996127109161ffff7f00000000000000000000000000000000000000000000000000000000000000001690611133565b0490565b50600090565b5061ffff7f00000000000000000000000000000000000000000000000000000000000000001615611163565b90504211153861115b565b3d15611215573d9067ffffffffffffffff8211610f645760405191611209601f8201601f191660200184610f42565b82523d6000602084013e565b606090565b908160209103126110a3575180151581036110a35790565b60405163a9059cbb60e01b602082019081526001600160a01b03909316602482015260448082019490945292835260808301929167ffffffffffffffff841183851017610f64576000809493819460405251925af161128f6111da565b816112d4575b501561129d57565b60405162461bcd60e51b815260206004820152600f60248201526e151c985b9cd9995c8819985a5b1959608a1b6044820152606490fd5b80518015925082156112e9575b505038611295565b6112fc925060208091830101910161121a565b38806112e1565b80156113da578060005b6004805490818310156113d35760001982019182116113be57506001919081036113935761133b8380611018565b9280611349575b500161130d565b61138d90838060a01b038061135d856110bc565b90549060031b1c16907f000000000000000000000000000000000000000000000000000000000000000016611232565b38611342565b61133b6127106113b661ffff6113a8856110f3565b90549060031b1c1687611133565b048094611018565b601190634e487b7160e01b6000525260246000fd5b5050505050565b5056fea2646970667358221220b6b2f0ac64aa4ccc1a0b896796bd6e30fedab27a8fef7124ae00780282babebb64736f6c63430008180033a26469706673582212202846634158c7d23cf355c2f834deb246b178e402027b157bc928defa7ceb099664736f6c63430008180033",
  "linkReferences": {},
  "deployedLinkReferences": {}
}