{
  "_format": "hh-sol-artifact-1",
  "contractName": "MockERC20",
  "sourceName": "contracts/test/MockERC20.sol",
  "abi": [
    {
      "inputs": [
        {
          "internalType": "string",
          "name": "name_",
          "type": "string"
        },
        {
          "internalType": "string",
          "name": "symbol_",
          "type": "string"
        },
        {
          "internalType": "uint8",
          "name": "decimals_",
          "type": "uint8"
        }
      ],
      "stateMutability": "nonpayable",
      "type": "constructor"
    },
    {
      "anonymous": false,
      "inputs": [
        {
          "indexed": true,
          "internalType": "address",
          "name": "owner",
          "type": "address"
        },
        {
          "indexed": true,
          "internalType": "address",
          "name": "spender",
          "type": "address"
        },
        {
          "indexed": false,
          "internalType": "uint256",
          "name": "value",
          "type": "uint256"
        }
      ],
      "name": "Approval",
      "type": "event"
    },
    {
      "anonymous": false,
      "inputs": [
        {
          "indexed": true,
          "internalType": "address",
          "name": "from",
          "type": "address"
        },
        {
          "indexed": true,
          "internalType": "address",
          "name": "to",
          "type": "address"
        },
        {
          "indexed": false,
          "internalType": "uint256",
          "name": "value",
          "type": "uint256"
        }
      ],
      "name": "Transfer",
      "type": "event"
    },
    {
      "inputs": [
        {
          "internalType": "address",
          "name": "",
          "type": "address"
        },
        {
          "internalType": "address",
          "name": "",
          "type": "address"
        }
      ],
      "name": "allowance",
      "outputs": [
        {
          "internalType": "uint256",
          "name": "",
          "type": "uint256"
        }
      ],
      "stateMutability": "view",
      "type": "function"
    },
    {
      "inputs": [
        {
          "internalType": "address",
          "name": "spender",
          "type": "address"
        },
        {
          "internalType": "uint256",
          "name": "amount",
          "type": "uint256"
        }
      ],
      "name": "approve",
      "outputs": [
        {
          "internalType": "bool",
          "name": "",
          "type": "bool"
        }
      ],
      "stateMutability": "nonpayable",
      "type": "function"
    },
    {
      "inputs": [
        {
          "internalType": "address",
          "name": "",
          "type": "address"
        }
      ],
      "name": "balanceOf",
      "outputs": [
        {
          "internalType": "uint256",
          "name": "",
          "type": "uint256"
        }
      ],
      "stateMutability": "view",
      "type": "function"
    },
    {
      "inputs": [],
      "name": "decimals",
      "outputs": [
        {
          "internalType": "uint8",
          "name": "",
          "type": "uint8"
        }
      ],
      "stateMutability": "view",
      "type": "function"
    },
    {
      "inputs": [
        {
          "internalType": "address",
          "name": "to",
          "type": "address"
        },
        {
          "internalType": "uint256",
          "name": "amount",
          "type": "uint256"
        }
      ],
      "name": "mint",
      "outputs": [],
      "stateMutability": "nonpayable",
      "type": "function"
    },
    {
      "inputs": [],
      "name": "name",
      "outputs": [
        {
          "internalType": "string",
          "name": "",
          "type": "string"
        }
      ],
      "stateMutability": "view",
      "type": "function"
    },
    {
      "inputs": [],
      "name": "symbol",
      "outputs": [
        {
          "internalType": "string",
          "name": "",
          "type": "string"
        }
      ],
      "stateMutability": "view",
      "type": "function"
    },
    {
      "inputs": [],
      "name": "totalSupply",
      "outputs": [
        {
          "internalType": "uint256",
          "name": "",
          "type": "uint256"
        }
      ],
      "stateMutability": "view",
      "type": "function"
    },
    {
      "inputs": [
        {
          "internalType": "address",
          "name": "to",
          "type": "address"
        },
        {
          "internalType": "uint256",
          "name": "amount",
          "type": "uint256"
        }
      ],
      "name": "transfer",
      "outputs": [
        {
          "internalType": "bool",
          "name": "",
          "type": "bool"
        }
      ],
      "stateMutability": "nonpayable",
      "type": "function"
    },
    {
      "inputs": [
        {
          "internalType": "address",
          "name": "from",
          "type": "address"
        },
        {
          "internalType": "address",
          "name": "to",
          "type": "address"
        },
        {
          "internalType": "uint256",
          "name": "amount",
          "type": "uint256"
        }
      ],
      "name": "transferFrom",
      "outputs": [
        {
          "internalType": "bool",
          "name": "",
          "type": "bool"
        }
      ],
      "stateMutability": "nonpayable",
      "type": "function"
    }
  ],
  "bytecode": "0x60a0604052346200033a5762000b6e803803806200001d816200033f565b9283398101906060818303126200033a5780516001600160401b03908181116200033a57836200004f91840162000365565b90602093848401518281116200033a576040916200006f91860162000365565b9301519260ff841684036200033a57825190828211620003245760008054926001958685811c9516801562000319575b8986101462000305578190601f95868111620002b2575b5089908683116001146200024e57849262000242575b5050600019600383901b1c191690861b1781555b81519384116200022e5784548581811c9116801562000223575b888210146200020f57838111620001c7575b5086928411600114620001615783949596509262000155575b5050600019600383901b1c191690821b1790555b6080526040516107969081620003d882396080518161030c0152f35b01519050388062000125565b9190601f1984169685845280842093905b888210620001af575050838596971062000195575b505050811b01905562000139565b015160001960f88460031b161c1916905538808062000187565b80878596829496860151815501950193019062000172565b8582528782208480870160051c8201928a881062000205575b0160051c019086905b828110620001f95750506200010c565b838155018690620001e9565b92508192620001e0565b634e487b7160e01b82526022600452602482fd5b90607f1690620000fa565b634e487b7160e01b81526041600452602490fd5b015190503880620000cc565b8480528a85208994509190601f198416865b8d8282106200029b575050841162000281575b505050811b018155620000e0565b015160001960f88460031b161c1916905538808062000273565b8385015186558c9790950194938401930162000260565b9091508380528984208680850160051c8201928c8610620002fb575b918a91869594930160051c01915b828110620002ec575050620000b6565b8681558594508a9101620002dc565b92508192620002ce565b634e487b7160e01b83526022600452602483fd5b94607f16946200009f565b634e487b7160e01b600052604160045260246000fd5b600080fd5b6040519190601f01601f191682016001600160401b038111838210176200032457604052565b919080601f840112156200033a5782516001600160401b03811162000324576020906200039b601f8201601f191683016200033f565b928184528282870101116200033a5760005b818110620003c357508260009394955001015290565b8581018301518482018401528201620003ad56fe6080604081815260048036101561001557600080fd5b600092833560e01c90816306fdde03146104c557508063095ea7b31461045757806318160ddd1461043857806323b872dd14610330578063313ce567146102f257806340c10f191461026d57806370a082311461023557806395d89b4114610111578063a9059cbb146100dc5763dd62ed3e1461009157600080fd5b346100d857816003193601126100d85760209282916100ae610603565b6100b661061e565b6001600160a01b03918216845291865283832091168252845220549051908152f35b8280fd5b50503461010d578060031936011261010d576020906101066100fc610603565b602435903361069d565b5160018152f35b5080fd5b5091903461010d578160031936011261010d578051908260018054908160011c906001831692831561022b575b6020938484108114610218578388529081156101fc57506001146101a6575b505050829003601f01601f191682019267ffffffffffffffff841183851017610193575082918261018f9252826105ba565b0390f35b634e487b7160e01b815260418552602490fd5b600187529192508591837fb10e2d527612073b26eecdfd717e6a320cf44b4afac2b0732d9fcbe2b7fa0cf65b8385106101e8575050505083010138808061015d565b8054888601830152930192849082016101d2565b60ff1916878501525050151560051b840101905038808061015d565b634e487b7160e01b895260228a52602489fd5b91607f169161013e565b50503461010d57602036600319011261010d5760209181906001600160a01b0361025d610603565b1681526003845220549051908152f35b50503461010d578060031936011261010d57817fddf252ad1be2c89b69c2b068fc378daa952ba7f163c4a11628f55a4df523b3ef60206102ab610603565b6001600160a01b031693602435906102c4861515610657565b6102d082600254610690565b600255858552600383528085206102e8838254610690565b905551908152a380f35b50503461010d578160031936011261010d576020905160ff7f0000000000000000000000000000000000000000000000000000000000000000168152f35b5091903461010d57606036600319011261010d5761034c610603565b61035461061e565b6001600160a01b03821680855260208681528486203387528152848620549095604435949291858110610400579086979861010697928760001982036103a0575b50505050505061069d565b6103a991610634565b848352818b528383203384528b52838320558382528952818120338252895220549086519182527f8c5be1e5ebec7d5bd14f71427d1e84f3dd0314c0f7b2291e5b200ac8c7c3b925883393a3388581808087610395565b865162461bcd60e51b8152808a018990526012602482015271105b1b1bddd85b98d948195e18d95959195960721b6044820152606490fd5b50503461010d578160031936011261010d576020906002549051908152f35b50346100d857816003193601126100d857602092610473610603565b918360243592839233825287528181209460018060a01b0316948582528752205582519081527f8c5be1e5ebec7d5bd14f71427d1e84f3dd0314c0f7b2291e5b200ac8c7c3b925843392a35160018152f35b84915083346100d857826003193601126100d85782835460018160011c90600183169283156105b0575b602093848410811461021857838852908115610594575060011461053f57505050829003601f01601f191682019267ffffffffffffffff841183851017610193575082918261018f9252826105ba565b8680529192508591837f290decd9548b62a8d60345a988386fc84ba6bc95484008f6362f93160ef3e5635b838510610580575050505083010185808061015d565b80548886018301529301928490820161056a565b60ff1916878501525050151560051b840101905085808061015d565b91607f16916104ef565b6020808252825181830181905290939260005b8281106105ef57505060409293506000838284010152601f8019910116010190565b8181018601518482016040015285016105cd565b600435906001600160a01b038216820361061957565b600080fd5b602435906001600160a01b038216820361061957565b9190820391821161064157565b634e487b7160e01b600052601160045260246000fd5b1561065e57565b60405162461bcd60e51b815260206004820152600a602482015269496e76616c696420746f60b01b6044820152606490fd5b9190820180921161064157565b6001600160a01b039182169291906106b6841515610657565b16906000828152600360205281604082205410610729577fddf252ad1be2c89b69c2b068fc378daa952ba7f163c4a11628f55a4df523b3ef91604082856020945260038452818120610709848254610634565b9055868152600384522061071e828254610690565b9055604051908152a3565b60405162461bcd60e51b815260206004820152600f60248201526e42616c616e636520746f6f206c6f7760881b6044820152606490fdfea2646970667358221220018390b80a046fb83a935ba11adaf41d5245d13dc0387c2cee78c8cb376a372264736f6c63430008180033",
  "linkReferences": {},
  "deployedLinkReferences": {}
}